:020000040800F2
:10000000F82A0020AD010008652A0008F128000840
:10001000612A000897040008153A00080000000053
:10002000000000000000000000000000413900084E
:100030009B05000800000000692A000843390008F9
:10004000C7010008C7010008C7010008C701000870
:10005000C7010008C7010008C7010008C701000860
:10006000C7010008C7010008C7010008C701000850
:10007000C7010008C7010008C7010008C701000840
:10008000C7010008C7010008C70100080000000000
:10009000000000000000000000000000C701000890
:1000A000C7010008C7010008C7010008C701000810
:1000B000C7010008C7010008C7010008C701000800
:1000C000C7010008C7010008C7010008C7010008F0
:1000D000C7010008C7010008C701000800000000B0
:1000E000C7010008C7010008C701000800000000A0
:1000F000000000000000000000000000C701000830
:1001000000000000B52A0008C7010008C701000868
:1001100000000000000000000000000000000000DF
:10012000C7010008C7010008C70100089D040008B6
:10013000C7010008000000000000000000000000EF
:10014000000000000000000000000000C7010008DF
:10015000C7010008AD040008C7010008C701000876
:10016000C7010008C70100080000000000000000EF
:10017000000000000000000000000000000000007F
:1001800000000000C701000800000000000000009F
:10019000C7010008C7010008DFF80CD000F0B2F872
:1001A0000048004749590008F82A002006488047BF
:1001B00006480047FEE7FEE7FEE7FEE7FEE7FEE74C
:1001C000FEE7FEE7FEE7FEE7013A000899010008B6
:1001D0002DE9F05F0546002092469B46884606467C
:1001E000814640241BE0284641464746224600F00F
:1001F00078F853465A46C01A914110D31146184612
:10020000224600F05FF82D1A67EB01084F462246A0
:100210000120002100F056F817EB00094E41201E86
:10022000A4F10104DFDC484631462A464346BDE8D6
:10023000F09F40EA01039B0703D009E008C9121FA1
:1002400008C0042AFAD203E011F8013B00F8013B90
:10025000521EF9D27047D2B201E000F8012B491EBC
:10026000FBD270470022F6E710B513460A46044653
:100270001946FFF7F0FF204610BD30B505460020B7
:10028000034600E05B1C934205D2EC5CC85C201A7C
:1002900001D1002CF6D130BD30B50B46014600200F
:1002A0002022012409E021FA02F59D4205D303FA38
:1002B00002F5491B04FA02F52844151EA2F10102B9
:1002C000F1DC30BD202A04DB203A00FA02F10020E4
:1002D00070479140C2F1200320FA03F31943904084
:1002E0007047202A04DB203A21FA02F000217047EF
:1002F00021FA02F3D040C2F120029140084319468E
:1003000070470000064C074D06E0E06840F001032E
:1003100094E8070098471034AC42F6D3FFF740FF4B
:10032000C0640008E0640008F0B5ADF5037D00246A
:10033000012701221AA1214804F0EEFA00B101249C
:100340001DE040F20A21684603F0B6F808B1012426
:1003500018E0684600F00EFB054665B91849D1F86B
:10036000010000F0A5FB06460EB901240AE0304664
:1003700000F0B0FA02E0012D00D1002700BF0FB15C
:10038000002CDED000BF0D4804F054FA00B1012467
:100390001CB900200DF5037DF0BD0120FAE7000037
:1003A000303A2F4669726D776172652F50726F67B0
:1003B00072616D6D65722E6865780000A80000207E
:1003C000D81000207047000010B5044621460248AE
:1003D00001F098FD10BD00006823002010B504480E
:1003E00001F0A3FD042801D0012010BD0020FCE78E
:1003F0006823002010B5002400F014F8012801D073
:10040000012010BD064801F0B1FE044634B94FF496
:100410000061034801F02CFC00B101242046F0E704
:100420006823002008B5012000909DF8000008BD59
:100430002DE9F84304460D4616461F464FF00008C6
:1004400033462A4621460548009701F0C9FF08B106
:100450004FF001084046BDE8F88300006823002003
:10046000704700002DE9F84304460D4616461F4626
:100470004FF0000833462A4621460548009702F00F
:1004800005F908B14FF001084046BDE8F8830000C7
:1004900068230020704700BFFEE7000010B5024847
:1004A00000F05EFB10BD0000EC23002010B50248F8
:1004B00000F056FB10BD00004C24002001460878D7
:1004C00010381823B0FBF3F20848805CC865032A93
:1004D00005D908686FF30900001D886503E0086806
:1004E0006FF309008865886D704700004860000858
:1004F000014600208A6A8B69CBB932B1012A0DD03E
:10050000022A03D0032A10D10EE000BFCB6A03F009
:100510008073B3F1807F00D1012007E0CB6AB3F193
:10052000C07F00D1012001E000E000BF34E08B6912
:10053000B3F5005F1AD132B1012A07D0022A03D0E5
:10054000032A11D10AE000BF01200EE0CB6A03F0BC
:100550008073B3F1807F00D1012006E0CB6AB3F154
:10056000C07F00D1012000E000BF15E032B1012AB8
:1005700005D0022A04D0032A0CD103E000BF00BF3B
:10058000012008E0CB6A03F08073B3F1807F00D1D3
:10059000012000E000BF00BF7047704772B600BF87
:1005A000FEE730B504460D4600222946204600F0FD
:1005B00001F830BDF0B50346012500241148407A0A
:1005C00001281CDA00200F4E767A0E4FB8553846B7
:1005D000467A001D40F82630001F467A08308255C2
:1005E0003E46707A461C7E72044604F13000087064
:1005F0003A2048702F2088700020C87000252846B7
:10060000F0BD0000EC26002010B5002201B909E081
:10061000012901D10A0205E0022901D10A0201E003
:100620004FF440720E4B1B6823F440730C4C236054
:1006300023461B681343236023461B6823F0F803FB
:10064000236023461B68022444EAC0042343044C6D
:10065000236023461B6843F48033236010BD0000F1
:10066000103C02401C48006800F40070B0B11A4809
:10067000006820F400701849086000BF0846006850
:1006800040F4006008600846006820F400600860DC
:1006900000BF0846006840F4007008600E4800681B
:1006A00000F48060B0B10C48006820F480600A4912
:1006B000086000BF0846006840F4805008600846A3
:1006C000006820F48050086000BF0846006840F4CD
:1006D0008060086070470000003C02400A4A1268CF
:1006E00022F44072084B1A601A46126842F0040263
:1006F0001A601A4612684FF4803343EA00231A4303
:10070000014B1A6070470000103C0240074A126813
:1007100022F44072054B1A601A4612681A601A4693
:10072000126842F001021A6001707047103C0240EA
:1007300010B50D49096821F440710B4C2160214628
:10074000096841F4407121602146096841F00101C6
:100750002160026000BF00BF00BFBFF36F8F00BF0A
:1007600000BF00BF436010BD103C0240084A126841
:1007700022F44072064B1A601A46126842F48072E4
:100780001A601A46126842F001021A60018070472E
:10079000103C0240084A126822F44072064B1A606C
:1007A0001A46126842F400721A601A46126842F041
:1007B00001021A6001607047103C02402A4800683C
:1007C00000F0100040B12948C06940F010002749EE
:1007D000C8611020244908602348006800F0200008
:1007E00040B12248C06940F008002049C86120207B
:1007F0001D4908601C48006800F0400040B11B48DB
:10080000C06940F004001949C861402016490860D9
:100810001548006800F0800040B11448C06940F0FD
:1008200002001249C86180200F4908600E48006824
:1008300000F4807048B10D48C06940F001000B49D8
:10084000C8614FF48070084908600748006800F0EC
:10085000020040B10548C06940F020000349C8616A
:1008600002200149086070470C3C0240AC24002083
:1008700070B50446002500201449C86100F0ECFC66
:10088000054609E0601C38B124B100F0E5FC401BCE
:10089000A04201D9032070BD0D48006800F48030EB
:1008A0000028EFD10A48006800F0010010B10120D3
:1008B000074908600648006800F4F97018B1FFF7AE
:1008C0007DFF0120E7E70020E5E70000AC240020E1
:1008D0000C3C024030B587B0044614221D4902A8E2
:1008E000FFF7A7FC207804900020019000F0B0FBF7
:1008F00010B1012007B030BD207BC8B900250BE046
:1009000001A902A800F0F8FA134908700846007817
:1009100000B903E0681CC5B2022DF1DB00BF0E4830
:10092000007818B100F03EFB0120E3E701202073BE
:100930000A4A1178D2F80100521D00F0E3F8084984
:1009400008700846017807A003F066F800F02AFB5B
:100950000020CFE72060000880000020D810002091
:100960008100002073746174333333203D25690D99
:100970000A00000070B50446207A30283ED03128A5
:1009800004D0342820D035287ED18AE0A07800F029
:10099000AFF80546607800F0ABF845EA001043492F
:1009A0000870084600780A2101EB4000215C3F48AE
:1009B0000078092202EB4000205C41EA00103B492C
:1009C00081F80501012070BDA07A00F091F805467C
:1009D000607A00F08DF845EA0010C1B23348017129
:1009E000207B00F085F80546E07A00F081F845EAC2
:1009F0000010C1B22D48C1700220E4E7A07800F0D9
:100A000077F80546607800F073F845EA001027494A
:100A10000870207900F06CF80546E07800F068F87E
:100A200045EA0010C1B221488170A07900F060F859
:100A30000546607900F05CF845EA00101B494870F3
:100A4000002515E0092101EB4501491C605C00F01F
:100A50004FF80646092101EB4501605C00F048F8BB
:100A600046EA0010C1B21148401D4155681CC5B28C
:100A70000E480078A842E5DC0C4800780A2101EB1A
:100A80004000215C094800E00DE00078092202EBFB
:100A90004000205C41EA0010044981F80501002073
:100AA00091E703208FE704208DE70000D810002095
:100AB0000246002116E00D4800EB0110406890420C
:100AC0000ED80A4800EB01104068084B03EB0113F5
:100AD0009B681844904203D9044800EB011070470A
:100AE000481C81B20829E6D30020F8E70000002066
:100AF0000146392902DCA1F1300001E0A1F1370003
:100B0000C0B270472DE9F04105460E461746002455
:100B10000DE017F804C0291962460023184600F0BA
:100B20004BFA10B10120BDE8F081601C84B2B442E0
:100B3000EFD30020F7E7014691F83500022803D0F3
:100B40008020486501207047052081F8350008683D
:100B5000006820F001000A6810600020F3E7000040
:100B6000F8B50446002000908C4800684FF41651F8
:100B7000B0FBF1F7A56D2E6894F85C100820884052
:100B8000304098B12068006800F0040070B120681F
:100B9000006820F004002168086094F85C100820C8
:100BA0008840A860606D40F00100606594F85C10BA
:100BB00001208840304068B12068406900F0800022
:100BC00040B194F85C1001208840A860606D40F04E
:100BD0000200606594F85C1004208840304068B1E1
:100BE0002068006800F0020040B194F85C10042016
:100BF0008840A860606D40F00400606594F85C1067
:100C000010208840304078B32068006800F0080069
:100C100050B394F85C1010208840A86020680068E9
:100C200000F4802080B12068006800F4002028B91A
:100C3000206CC8B12046216C884715E0A06C98B1A3
:100C40002046A16C88470FE02068006800F480709F
:100C500028B92068006820F0080021680860206C2E
:100C600010B12046216C884794F85C102020884001
:100C70003040002865D02068006800F0100000288F
:100C80005FD094F85C1020208840A86094F835006C
:100C9000052828D12068006820F016002168086027
:100CA0002068406920F0800021684861206C08B904
:100CB000A06C28B12068006820F008002168086056
:100CC00094F85C103F208840A860012084F835002B
:100CD00000BF002084F8340000BF206D10B1204612
:100CE000216D8847F8BD2068006800F4802080B13D
:100CF0002068006800F4002028B9606C10B120461C
:100D0000616C88471DE0E06BD8B12046E16B8847F5
:100D100017E02068006800F4807068B920680068F7
:100D200020F0100021680860012084F8350000BF21
:100D3000002084F8340000BFE06B10B12046E16B66
:100D40008847606D38B3606D00F00100F0B1052098
:100D500084F835002068006820F0010021680860F0
:100D600000BF0098401C0090B84200D905E0206800
:100D7000006800F001000028F3D100BF012084F8D2
:100D8000350000BF002084F8340000BFE06C10B1D3
:100D90002046E16C884700BFA4E7000098000020CF
:100DA0002DE9F0410446002500F056FA074614B933
:100DB0000120BDE8F081606A00B100BF022084F824
:100DC000350000BF002084F8340000BF20680068B0
:100DD00020F00100216808600AE000F03DFAC01B25
:100DE000052805D920206065032084F83500E0E758
:100DF0002068006800F001000028EED12068056836
:100E000021480540D4E901010843E168084321690C
:100E1000084361690843A1690843E1690843216AFD
:100E200008430543606A042803D1D4E90B01084351
:100E30000543206805602068456925F00705606A5C
:100E40000543606A04280DD1A06A0543E06A48B1F1
:100E50002046FFF74DFB28B140206065012084F853
:100E60003500A6E7206845612046FFF727FB0646C8
:100E700094F85C103F208840B0600020606501203D
:100E800084F83500002094E73F8010F010B54FF053
:100E9000FF300E49086000200860401E091D0860F0
:100EA00000200860401E09491039086000200860D1
:100EB000401E091D086000200860401E091D0860D2
:100EC0000020086000F01EFA002010BD203802400B
:100ED00070B5044600F0C0F906462546681C10B1FE
:100EE00004480078054400BF00F0B6F9801BA84212
:100EF000FAD370BD940000202DE9F04104460E465F
:100F00000127002500BF2548007E012802D10220CC
:100F1000BDE8F08101202149087600BF4CF2503035
:100F2000FFF7A6FC0746002F31D1401E3060206835
:100F300001280FD1207C6168FFF7D0FB4CF25030C4
:100F4000FFF796FC07461648006820F00400144995
:100F500008601AE0A56812E0217C2846FFF754FBE0
:100F60004CF25030FFF784FC07460D48006820F033
:100F7000FA000B4908600FB1356005E06D1CD4E93B
:100F800002100844A842E7D800BFFFF76BFB00BF80
:100F900000200249087600BF3846B9E7AC2400209B
:100FA000103C02400348006840F0004001490860DE
:100FB00000207047103C02402DE9F04106460F46E4
:100FC00014461D464FF0010800BF1F48007E01284F
:100FD00002D10220BDE8F08101201B49087600BF44
:100FE0004CF25030FFF744FC8046B8F1000F23D19B
:100FF00026B9E1B23846FFF789FB12E0012E04D191
:10100000A1B23846FFF7B2FB0BE0022E04D1214615
:101010003846FFF7BFFB04E022462B463846FFF771
:1010200087FB4CF25030FFF723FC804607480068EE
:1010300020F001000549086000BF00200249087641
:1010400000BF4046C6E70000AC240020103C024030
:1010500000200949096801F0004159B10749064AD1
:101060000C3A1160064911600349096801F000411A
:1010700001B1012070470000103C02402301674588
:10108000AB89EFCDF8B502460B46002500240020C1
:101090000021C6E0012606FA01F51E6806EA0504ED
:1010A000AC4274D11E7906F00306012E04D01E79DD
:1010B00006F00306022E13D190684F000326BE40AF
:1010C000B0434F00DE68BE40304390605068012658
:1010D0008E40B0431E79C6F300168E4030435060F8
:1010E0001E7906F00306032E09D0D0684F000326B0
:1010F000BE40B0434F009E68BE403043D0601E7972
:1011000006F00306022E13D1CF0802F1200656F88E
:1011100027004E07F70E0F26BE40B0434F07FF0EC5
:101120001E69BE403043CF0802F1200646F8270072
:1011300010684F000326BE40B0431E7906F0030638
:101140004F00BE40304310605E6806F44036002E0B
:1011500066D000BF00260096344E366846F48046BE
:10116000324F3E603E46366806F48046009600BF29
:1011700000BF2F4E8F0856F827008E07370F0F2617
:10118000BE40B0432B4EB24202D1002615E047E0EC
:10119000294EB24201D101260FE0284EB24201D1C0
:1011A00002260AE0264EB24201D1032605E0254E72
:1011B000B24201D1042600E007268F073F0FBE4050
:1011C00030431B4E8F0846F827001F4E3068A0435F
:1011D0005E6806F4803606B120431B4E3060361D33
:1011E0003068A0435E6806F4003606B12043164E10
:1011F000361D3060361D3068A0435E6806F48016E8
:1012000006B12043104E08363060361D3068A043CA
:101210005E6806F4001606B120430B4E0C363060B3
:10122000491C1029FFF436AFF8BD000044380240D5
:10123000083801400000024000040240000802405B
:10124000000C024000100240003C01400AB18161E4
:1012500001E00B048361704701480068704700009B
:101260008C000020034800680349097808440149BC
:10127000086070478C0000209400002010B50D48D5
:10128000006840F400700B4908600846006840F4AC
:10129000806008600846006840F4807008600320A1
:1012A00000F0A4F8002000F007F800F02DF800206E
:1012B00010BD0000003C024070B504460E480078A6
:1012C0004FF47A71B1FBF0F00C490968B1FBF0F50D
:1012D000284601F0F3FA08B1012070BD102C07D2A6
:1012E00000222146501E00F043F80548046001E04A
:1012F0000120F2E70020F0E7940000209800002091
:10130000900000207047000008B500BF002000904A
:101310000E48006840F480400C49086008460068A8
:1013200000F48040009000BF00BF00BF002000908C
:10133000081F006840F08050091F086008460068D8
:1013400000F08050009000BF00BF08BD443802404C
:1013500001460846002809DB00F01F0301229A40DD
:1013600043099B0003F1E023C3F8002100BF70474D
:101370002DE9F05F80460D461646002702F05CFB23
:10138000074639462A46334601F00700C0F1070AEE
:10139000BAF1040F02D94FF0040A01E0C0F1070AC4
:1013A000D14600F1040ABAF1070F02D24FF0000A49
:1013B00001E0A0F1030AD4464FF0010A0AFA09FA43
:1013C000AAF1010A0AEA020A0AFA0CFA4FF0010B22
:1013D0000BFA0CFBABF1010B0BEA030B4AEA0B0413
:1013E0002146404602F030FBBDE8F09F00BF00F010
:1013F0000702064B19684FF6FF031940044B0B43D5
:1014000043EA0221014B196000BF70470CED00E078
:101410000000FA0570B504460D460CB9012070BDF8
:101420005848006800F00700A84209D255490D70DD
:101430000846006800F00700A84201D00120EEE74E
:10144000207800F0020002281DD1207800F004006E
:10145000042805D14C48006840F4E0504A4908602F
:10146000207800F00800082805D14748006840F4BB
:101470006040454908604448006820F0F000A168D9
:10148000084341490860207800F00100A8B3606873
:10149000012807D13C4808380068C0F34040B8B97B
:1014A0000120BCE76068022802D06068032807D1E9
:1014B000354808380068C0F3406048B90120AEE7FD
:1014C000314808380068C0F3400008B90120A6E799
:1014D0002D48006820F00300616808432A4908602D
:1014E000FFF7BAFE064609E0FFF7B6FE801B41F2A1
:1014F0008831884202D9032091E707E0224800683A
:1015000000F00C006168B0EB810FEDD11D48006860
:1015100000F00700A84209D91A490D700846006872
:1015200000F00700A84201D0012078E7207800F001
:101530000400042807D11448006820F4E050E16852
:10154000084311490860207800F00800082808D1F5
:101550000D48006820F46040216940EAC1000A4952
:10156000086000F0D9F808490968C1F30311074A77
:10157000515CC8400649086006480068FFF79CFEB9
:1015800000204CE7003C0240083802405060000850
:10159000980000209000002010B5FFF75DFE044683
:1015A0005748006840F001005549086006E0FFF721
:1015B00053FE001B022801D9032010BD50480068CB
:1015C00000F002000028F2D04D48006840F0800092
:1015D0004B490860FFF740FE0446002048490831A7
:1015E000086008E0FFF738FE001B41F288318842AE
:1015F00001D90320E1E742480830006800F00C0000
:101600000028EFD1FFF728FE04463D48006820F48B
:1016100050203B49086006E0FFF71EFE001B6428CF
:1016200001D90320C9E73648006800F400300028DB
:10163000F2D1FFF711FE04463148006820F08070B7
:101640002F49086006E0FFF707FE001B022801D9BA
:101650000320B2E72A48006800F000700028F2D1A9
:10166000FFF7FAFD04462648006820F08060244910
:10167000086006E0FFF7F0FD001B022801D90320F7
:101680009BE71F48006800F000600028F2D11D4869
:101690001B49091D08601C48194984310860184815
:1016A0000C30006820F4F85015490C3108600846E9
:1016B000006820F4005008600846006840F41F00ED
:1016C00008600846006840F4001008600C48743058
:1016D000006820F001000A4974310860084600687B
:1016E00040F08070086009480949086009480068AE
:1016F000FFF7E2FD08B101205FE700205DE7000091
:101700000038024010300004103000200024F400A3
:1017100098000020900000202DE9F04700240025CB
:101720000026A1462548006800F00C0020B10428DE
:1017300005D008283AD105E0DFF8849039E0DFF8D9
:10174000849036E01D48001F006800F03F041B48ED
:10175000001F006800F4800078B11A481749091F7B
:101760000968C1F38811A0FB0170014622460023DD
:101770003846FEF72DFD05460EE011480F49091FBA
:101780000968C1F38811A0FB0170014622460023BD
:101790003846FEF71DFD05460848001F0068C0F3E7
:1017A0000140401C4600B5FBF6F902E0DFF810905E
:1017B00000BF00BF4846BDE8F0870000083802407F
:1017C0000024F40040787D01F8B504460CB90120EE
:1017D000F8BD207800F00100002874D0F9480068B6
:1017E00000F00C0004280DD0F648006800F00C0052
:1017F000082813D1F348001F006800F48000B0F5FA
:10180000800F0BD1EF4808380068C0F34040002833
:1018100059D06068002856D10120D9E700BF606820
:10182000B0F5803F08D1E7480838006840F48030C0
:10183000E449083908601EE06068B0F5A02F0DD1BA
:10184000E0480838006840F48020DE490839086024
:101850000846006840F4803008600CE0D948083839
:10186000006820F48030D7490839086008460068CD
:1018700020F48020086000BF606890B1FFF7ECFCA6
:10188000054606E0FFF7E8FC401B642801D9032069
:101890009EE7CC4808380068C0F340400028F1D0EB
:1018A00011E0FFF7D9FC054606E0FFF7D5FC401B29
:1018B000642801D903208BE7C24808380068C0F3C8
:1018C00040400028F1D1207800F0020002285FD1CA
:1018D000BC48006800F00C0058B1BA48006800F03D
:1018E0000C0008281CD1B748001F006800F48000D5
:1018F000B0B9B44808380068C0F3400020B1E068CF
:10190000012801D0012063E7AE480838006820F0C4
:10191000F800216940EAC100AA490839086037E0A7
:10192000E06800B30120A8490860FFF795FC054670
:1019300006E0FFF791FC401B022801D9032047E78E
:10194000A04808380068C0F340000028F1D09D4846
:101950000838006820F0F800216940EAC100994980
:101960000839086014E0002097490860FFF774FC0C
:10197000054606E0FFF770FC401B022801D9032052
:1019800026E7904808380068C0F340000028F1D1ED
:10199000207800F0080008282CD16069A8B1012047
:1019A0008A490860FFF758FC054606E0FFF754FC3B
:1019B000401B022801D903200AE782486C300068E6
:1019C000C0F340000028F1D014E000207F490860F7
:1019D000FFF742FC054606E0FFF73EFC401B0228ED
:1019E00001D90320F4E677486C300068C0F340006A
:1019F0000028F1D1207800F00400042870D10027DD
:101A000070483830006800F0805090B900BF002066
:101A100000906C483830006840F080506949383197
:101A200008600846006800F08050009000BF00BFCA
:101A300001276748006800F48070B0B96448006806
:101A400040F4807062490860FFF706FC054606E036
:101A5000FFF702FC401B022801D90320B8E65C48CE
:101A6000006800F480700028F2D000BFA068012850
:101A700008D154486830006840F00100514968318D
:101A800008601DE0A06805280DD14E486830006848
:101A900040F004004B49683108600846006840F097
:101AA000010008600CE047486830006820F0010041
:101AB0004449683108600846006820F00400086066
:101AC00000BFA068A8B1FFF7C7FB054609E0FFF714
:101AD000C3FB401B41F28831884202D9032077E6DC
:101AE00026E0384868300068C0F340000028EED097
:101AF00013E0FFF7B1FB054608E0FFF7ADFB401B25
:101B000041F28831884201D9032061E62D486830CE
:101B10000068C0F340000028EFD1012F07D1294809
:101B20003830006820F0805026493831086000BF06
:101B3000A069002845D02348006800F00C00082860
:101B40005DD0A069022845D100201F490866FFF733
:101B500083FB054606E0FFF77FFB401B022801D907
:101B6000032035E6174808380068C0F340600028B5
:101B7000F1D1D4E907010843616A40EA81110122E9
:101B8000A06AC2EB500041EA00412C20005D41EA0E
:101B900000600C49091F086001200B490866FFF727
:101BA0005BFB054606E0FFF757FB401B022801D907
:101BB00003200DE6034808380068C0F340600028A1
:101BC000F1D049E00838024000004742800E474209
:101BD00000700040002021490866FFF73DFB0546E4
:101BE00006E0FFF739FB401B022801D90320EFE58F
:101BF0001B480068C0F340600028F2D12CE0A069C7
:101C0000012800D1E4E51648001D0668A0690128F6
:101C100020D006F48001E06981421BD106F03F012B
:101C2000206A814216D147F6C0703040616AB0EB3D
:101C3000811F0FD106F440310122A06AC2EB50008F
:101C4000B1EB004F06D106F070612C20005DB1EBC6
:101C5000006F01D00120BBE50020B9E5000047423C
:101C60000038024010B50446FEF7ACFB10BD000082
:101C7000F0B589B004460E460027032084F83400EE
:101C8000606C032820D0B6F5805F04D1A06B40F0D3
:101C90008050A0631CE0B6F5006F07D1204601F02C
:101CA00074FD0546A06B2843A06311E03EB92046B1
:101CB00001F037FD0546A06B2843A06308E0A06B48
:101CC00040F00060A06303E0A06B40F08050A06390
:101CD000A06B38B1174821688863012084F834006C
:101CE000012713E060680390A0680490E068059005
:101CF000069660690790A069089006A807C88DE855
:101D00000700206803A90EC900F0DCFE4FF4007143
:101D1000206800F053FF054635B106482168886306
:101D2000A06B2843A0630127012084F834003846C3
:101D300009B0F0BDFF0540007047000010B5024635
:101D4000506E800F0870506EC0F383604870506E04
:101D5000C0F301608870506E000CC870B2F8640067
:101D6000000A087192F864004871906E000DC880F6
:101D7000906EC0F3034008726820805AC0F3C030F0
:101D800048726820805AC0F3803088726820805A78
:101D9000C0F34030C8726820805AC0F30030087326
:101DA00000204873506C002836D16820805A800586
:101DB000030DD06E43EA90700861D06EC0F3C2602C
:101DC0000875D06EC0F302604875D06EC0F3425003
:101DD0008875D06EC0F38240C875D06EC0F3C23033
:101DE00008760869401C50650B7E506D03F00703B0
:101DF0009B1C01249C4060435065087A00F00F034F
:101E0000012098409065D2E915035B0A5843D065DC
:101E10004FF40073136621E0506C012813D1682041
:101E2000805C8006830AD06E43EA1040086108692E
:101E3000401C83025365536DD3654FF40073936563
:101E4000936D13660AE02E4813689863906B40F018
:101E500080509063012082F8340010BD6C20805ABD
:101E6000C0F3803001F8190F6C20805AC0F3C610FF
:101E700048706C20805C00F07F008870106FC00F8D
:101E8000C870106FC0F341700871106FC0F38260AA
:101E90004871106FC0F383508871106FC0F34050C9
:101EA000C87100200872106FC0F3004048727020A3
:101EB000805AC0F3C03088727020805AC0F38030DE
:101EC000C8727020805AC0F3403008737020805A66
:101ED000C0F3003048737020805AC0F381208873AB
:101EE0007020805AC0F30120C8737020805CC0F35A
:101EF000460008740120487419390020ADE700003D
:101F0000FF0540000246506C0860906C4860D06C41
:101F10008860106DC860506D0861906D4861D06D2B
:101F20008861106EC86100207047F8B50446002033
:101F300000906946204601F0DCFB054615B1A06B18
:101F40002843A0630098C0F343263046F8BD000044
:101F500070B50446256B2068406BC0F3C03030B1CB
:101F600005F0080018B1204601F09EFBF8E020685B
:101F7000406BC0F30020002862D04FF480702168CD
:101F800088632068C06B4CF23A3188432168C8638B
:101F90002068C06A20F001002168C86205F00800CE
:101FA00038B305F0020010B905F0200050B12068E8
:101FB00000F048FF06462EB1A06B3043A0632046D8
:101FC000FFF7BAFE40F23A5021688863012084F896
:101FD00034000020206305F0010010B905F0020074
:101FE00018B1204600F048FBBAE0204600F049FB5B
:101FF000B6E005F080000028B8D005F0200050B110
:10200000206800F01FFF06462EB1A06B3043A0638E
:102010002046FFF791FE05F001000028A6D105F04B
:1020200002000028A2D12068C06A20F008002168C0
:10203000C862012084F83400204600F022FB8FE0C3
:102040002068406BC0F3803030B105F0080018B153
:10205000204601F0CEFB83E02068406B40F23A213D
:10206000084008B1012000E00020002878D0206856
:10207000406BC0F3400018B1A06B40F00200A063B9
:102080002068406BC0F3C00018B1A06B40F008009E
:10209000A0632068406BC0F3401018B1A06B40F003
:1020A0002000A0632068406BC0F3001018B1A06B43
:1020B00040F01000A0632068406BC0F3402018B1CE
:1020C000A06B40F00800A06340F23A70216888637A
:1020D0002068C06B40F23A3188432168C8632068A9
:1020E00000F0B0FEA16B0843A06305F0080040B10A
:1020F000012084F83400002020632046FFF71CFEF6
:102100002EE005F0800000B305F0100010B905F0D6
:10211000200050B11348E16B0865E06BFEF70BFD42
:1021200098B1E06B01F002F91AE005F0010010B976
:1021300005F0020050B10C48216C0865206CFEF7D8
:10214000FAFC10B1206C01F0CDF809E00020A0638A
:10215000012084F83400002020632046FFF782FD30
:1021600070BD00002D330008E532000810B50446AC
:102170000CB9012010BD94F8340020B9002020775C
:10218000204600F067F8032084F83400204600F071
:102190000BF808B10120EDE70020A06320630120C7
:1021A00084F834000020E5E770B58AB004460020CA
:1021B000049005900690079008907620099007A853
:1021C00007C88DE80700206804A90EC900F07AFC52
:1021D000064616B101200AB070BD00201B490860F8
:1021E000206800F089FC01201849A039C1F8A0003E
:1021F000204601F0F3F905463DB1012084F8340092
:10220000A06B2843A0630120E5E7204601F064F9B4
:1022100005463DB1012084F83400A06B2843A0633B
:102220000120D8E74FF40071206800F0C7FC054694
:102230004DB1074821688863A06B2843A063012043
:1022400084F83400C7E70020C5E70000A0802542DD
:10225000FF05400010B586B00446142101A8FEF722
:1022600001F85849206888427ED100BF00200090C4
:102270005548006840F4006053490860084600680B
:1022800000F40060009000BF00BF00BF002000907D
:102290004D481438006840F001004B49143908607B
:1022A0000846006800F00100009000BF00BF00BFBA
:1022B000002000900846006840F0020008600846D0
:1022C000006800F00200009000BF00BF4FF45070A3
:1022D00001900220029001200390032004900C2022
:1022E000059001A93948FEF7CDFE48F23000019073
:1022F0000220029001200390032004900C200590FE
:1023000001A93348FEF7BEFE3248334908604FF05A
:1023100000604860002130488160C1604FF48061F6
:10232000016189004161890081612021C161090346
:10233000016204214162032181624FF40001C16204
:1023400089100163FEF72CFD08B1FEF727F900BFE5
:1023500021482064846300BF1E4848301F4908603C
:102360004FF00060486000E02AE040211B48816097
:102370000021C1604FF480610161890041618900E1
:1023800081612021C16109030162042141620321AD
:1023900081624FF40001C16289100163FEF700FD04
:1023A00008B1FEF7FBF800BF0C48E063846300BF90
:1023B000002211463120FEF7DBFF3120FEF7C8FF77
:1023C00006B010BD002C014044380240000002401D
:1023D0000004024058640240EC2300204C240020FA
:1023E0002DE9FF4F89B004468B469946DDF858A089
:1023F000FEF732FF02900B9800905D46BBF1000F94
:1024000007D1A06B40F00060A06301200DB0BDE8D3
:10241000F08F94F8340001287ED10020A06300984A
:1024200000EB0901E06D814205D9A06B40F000701E
:10243000A0630120EAE7032084F83400002021682B
:10244000C862606C012802D00098400200904FF0F2
:10245000FF3003904FEA492004909020059002201D
:102460000690002007900120089003A9206800F042
:10247000FCFAB9F1010F07D9022020632068009906
:1024800000F004FC804606E00120206320680099EB
:1024900000F018FC8046B8F1000F0DD07548216897
:1024A0008863A06B40EA0800A063012084F8340030
:1024B000002020630120A9E7049E3AE02068406BD9
:1024C00000F40040E0B1DEB10020019015E020688A
:1024D00000F01BFB07462F706D1C761E380A287013
:1024E0006D1C761E380C28706D1C761E380E2870F8
:1024F0006D1C761E0198401C019001980828E6D3B7
:10250000FEF7AAFE0299401A504502D2BAF1000F16
:102510000FD15848216800E0A6E08863A06B40F026
:102520000040A063012084F83400002020630320D1
:102530006CE72068406B40F22A3108400028BDD08B
:102540002068406B00F48070D0B1B9F1010F17D949
:10255000606C032814D0206800F074FC8046B8F149
:10256000000F0DD0434821688863A06B40EA080043
:10257000A063012084F8340000202063012045E797
:102580002068406B00F0080068B13A482168886311
:10259000A06B40F00800A063012084F83400002004
:1025A0002063012032E72068406B00F0020068B130
:1025B000304821688863A06B40F00200A0630120CE
:1025C00084F834000020206301201FE72068406B5E
:1025D00000F0200068B1274821688863A06B40F0B4
:1025E0002000A063012084F8340000202063012033
:1025F0000CE729E0206800F088FA07462F706D1C70
:10260000761E380A28706D1C761E380C28706D1CDA
:10261000761E380E28706D1C761EFEF71DFE029980
:10262000401A504502D2BAF1000F0DD1114821686D
:102630008863A06B40F00040A063012084F8340060
:10264000002020630120E1E62068406B00F40010C8
:1026500008B1002ECED140F23A50216888630120A3
:1026600084F834000020D1E6A06B40F00050A06355
:102670000120CBE6FF05400010B50446FDF7F0FE53
:1026800010BD10B50446FDF705FF10BD2DE9F04F54
:1026900089B00446894693469846FEF7DDFD0290D0
:1026A000DA464D46B9F1000F07D1A06B40F000604B
:1026B000A063012009B0BDE8F08F94F83400012830
:1026C0007ED10020A0630AEB0801E06D814205D9AC
:1026D000A06B40F00070A0630120EBE7032084F8BA
:1026E000340000202168C862606C012801D04FEAE4
:1026F0004A2A4FF0FF3003904FEA48200490902080
:1027000005900020069007900120089003A92068FA
:1027100000F0ABF9B8F1010F07D920202063514632
:10272000206800F0ADFB064606E01020206351460D
:10273000206800F0C1FB064666B15F4821688863E7
:10274000A06B3043A063012084F834000020206394
:102750000120AFE7049F43E02068406B00F4804015
:1027600030B32FB3002001901FE0287800906D1C3B
:102770007F1E2878009941EA002000906D1C7F1E82
:102780002878009941EA004000906D1C7F1E28784F
:10279000009941EA006000906D1C7F1E6946206828
:1027A00000F0CBF90198401C019001980828DCD377
:1027B000FEF752FD0299411A1298814203D200E0BD
:1027C00074E0129860B93C4821688863A06B30437C
:1027D000A063012084F8340000202063032069E70F
:1027E0002068406B40F21A3108400028B4D02068BD
:1027F000406B00F48070B8B1B8F1010F14D9606C6F
:10280000032811D0206800F01DFB064666B12A4857
:1028100021688863A06B3043A063012084F83400F2
:1028200000202063012045E72068406B00F008008D
:1028300068B1214821688863A06B40F00800A0635C
:10284000012084F8340000202063012032E7206852
:10285000406B00F0020068B1174821688863A06BE4
:1028600040F00200A063012084F8340000202063BF
:1028700001201FE72068406B00F0100068B10E488F
:1028800021688863A06B40F01000A063012084F8E9
:1028900034000020206301200CE740F23A50216808
:1028A0008863012084F83400002003E7A06B40F027
:1028B0000050A0630120FDE6FF05400070B504460E
:1028C0002546681EB0F1807F01D301200FE0681E0D
:1028D0004FF0E02148610F214FF0FF3001F0B4F8D4
:1028E00000204FF0E021886107200861002070BDC2
:1028F00000BFFEE70A49096801F0010171B108490A
:102900008039096801F0010141B100BF4FF0604119
:1029100009680029FAD04FF060421070704700003B
:10292000800E00E008B500BF002000900E4800684F
:1029300040F480000C4908600846006800F48000FC
:10294000009000BF00BF002211463B20FEF710FDA3
:102950003B20FEF7FDFC002211464520FEF708FD56
:102960004520FEF7F5FC08BD3038024010B503499C
:102970000348FDF716FE0349087010BD87000020CC
:10298000346000088600002000B587B0142102A83A
:10299000FDF768FC00BF002001902648006840F069
:1029A0000400244908600846006800F00400019013
:1029B00000BF00BF00BF002001900846006840F043
:1029C000800008600846006800F08000019000BFA9
:1029D00000BF00BF002001900846006840F00100E1
:1029E00008600846006800F00100019000BF00BFC9
:1029F00000BF002001900846006840F00200086017
:102A00000846006800F00200019000BF00BF0122EC
:102A100051030948FEF71AFC4FF4005002900120C0
:102A2000039000200490059002A90348FEF72AFBBA
:102A300007B000BD30380240000802400648074990
:102A4000086000204860002104488160C160016185
:102A50004161082181617047002C014068230020FA
:102A600000BFFEE700BFFEE7704710B50246002337
:102A70000868506248689062D1E9020420430C69FA
:102A800020434C6920430343D06A20F0F7001843E9
:102A9000D062002010BD01460869C0B270470146EF
:102AA000086800F003007047024602F11400431862
:102AB0001868704710B50248FFF74AFA10BD0000C9
:102AC000682300200FB410B504460021DDE903029D
:102AD0001043059A1043069A1043079A1043089A28
:102AE00010430143606847F6FF629043084360600B
:102AF000002010BC5DF814FB10B5044603202060D4
:102B00000220FEF7E5F9002010BD0146D1F8800053
:102B1000704710B50246002308689060D1E90104AF
:102B20002043CC6820430C6920430343D0686FF3F3
:102B30000B001843D060002010BD02460868C2F8A0
:102B400080000020704770B586B005460C460194A1
:102B50003720029040200390002004904FF48060C2
:102B6000059001A92846FFF7D4FF41F288323721AA
:102B7000284600F0DDF90646304606B070BD00007C
:102B800070B586B005460C460B48204301902920BD
:102B9000029040200390002004904FF48060059044
:102BA00001A92846FFF7B5FF284600F0C9FA0646F6
:102BB000304606B070BD00000000108070B586B0D1
:102BC00005460C46019410200290402003900020FE
:102BD00004904FF48060059001A92846FFF799FF03
:102BE00041F288321021284600F0A2F9064630460C
:102BF00006B070BD70B586B005460C46019406203F
:102C0000029040200390002004904FF480600590D3
:102C100001A92846FFF77DFF41F2883206212846A8
:102C200000F086F90646304606B070BD30B585B076
:102C30000446002000900190029003904FF48060C1
:102C4000049069462046FFF764FF204600F050F9E3
:102C50000546284605B030BD30B585B004464FF472
:102C6000D570009008200190402002900020039031
:102C70004FF48060049069462046FFF74AFF2046E3
:102C800000F0E6FA0546284605B030BD70B586B0BE
:102C900005460C460194122002904020039000202B
:102CA00004904FF48060059001A92846FFF731FF9A
:102CB00041F288321221284600F03AF906463046A1
:102CC00006B070BD70B586B005460C460194112063
:102CD000029040200390002004904FF48060059003
:102CE00001A92846FFF715FF41F288321121284635
:102CF00000F01EF90646304606B070BDF0B585B04E
:102D0000064614461D46009407200190402002907C
:102D1000002003904FF48060049069463046FFF72E
:102D2000F8FE41F288320721304600F001F90746EB
:102D3000384605B0F0BD30B585B00446002000909F
:102D400002200190C0200290002003904FF4806088
:102D5000049069462046FFF7DCFE204600F0BEF9ED
:102D60000546284605B030BD70B586B005460C4610
:102D7000019409200290C0200390002004904FF499
:102D80008060059001A92846FFF7C3FE284600F0A1
:102D9000A5F90646304606B070BD30B585B004468C
:102DA00000200090332001904020029000200390EA
:102DB0004FF48060049069462046FFF7AAFE41F276
:102DC00088323321204600F0B3F80546284605B086
:102DD00030BD70B586B005460C4601940D200290BA
:102DE00040200390002004904FF48060059001A9DA
:102DF0002846FFF78EFE41F288320D21284600F06A
:102E000097F80646304606B070BD70B586B00546E8
:102E10000C460020019003200290402003900020E7
:102E200004904FF48060059001A92846FFF771FED9
:102E300022460321284600F0AFF90646304606B088
:102E400070BD000030B585B00446002000900C2015
:102E5000019040200290002003904FF48060049085
:102E600069462046FFF755FE044A0C21204600F033
:102E70005FF80546284605B030BD000000E1F505C5
:102E800070B586B005460C4601941920029040208A
:102E90000390002004904FF48060059001A928461B
:102EA000FFF737FE41F288321921284600F040F83A
:102EB0000646304606B070BD70B586B005460C4675
:102EC00001941820029040200390002004904FF4B9
:102ED0008060059001A92846FFF71BFE41F2883269
:102EE0001821284600F024F80646304606B070BD8A
:102EF00001460E480068C0084FF47A73B0FBF3F047
:102F000041F2883300FB03F200BF101EA2F1010260
:102F100002D14FF000407047486B00F0800000285D
:102F2000F3D0C52088630020F5E70000980000205A
:102F30002DE9F04305460F46904666480068C008F4
:102F40004FF47A71B0FBF1F000FB08F900BFB9F162
:102F50000000A9F1010903D14FF00040BDE8F08362
:102F60006E6B06F045000028F1D006F400600028E2
:102F7000EDD1686B00F0040010B10420A863EDE708
:102F8000686B00F0010010B10120A863E6E7C520DE
:102F9000A8632846FFF77FFDB84201D00120DDE796
:102FA00000212846FFF780FD04464B48204008B921
:102FB0000020D3E704F00040B0F1004F02D14FF001
:102FC0000070CBE704F08040B0F1804F01D1402089
:102FD000C4E704F00050B0F1005F01D18020BDE7EC
:102FE00004F08050B0F1805F02D14FF48070B5E7FB
:102FF00004F00060B0F1006F02D14FF40070ADE753
:1030000004F08060B0F1806F02D14FF48060A5E7DA
:1030100004F08070B0F1807F02D14FF400609DE732
:1030200004F40000B0F5000F02D14FF4805095E792
:1030300004F48000B0F5800F02D14FF400508DE70A
:1030400004F40010B0F5001F02D14FF4804085E772
:1030500004F48010B0F5801F02D14FF400407DE7EA
:1030600004F48020B0F5802F02D14FF4003075E7D2
:1030700004F40030B0F5003F02D14FF480206DE73A
:1030800004F48030B0F5803F02D14FF4002065E7B2
:1030900004F40040B0F5004F02D14FF480105DE71A
:1030A00004F48040B0F5804F02D14FF4001055E792
:1030B00004F40050B0F5005F02D14FF480004DE7FA
:1030C00004F00800082801D1000547E74FF48030DC
:1030D00044E700009800002008E0FFFD10B501461D
:1030E00016480068C0084FF47A74B0FBF4F041F25F
:1030F000883400FB04F300BF181EA3F1010302D1C2
:103100004FF0004010BD4A6B02F045000028F3D09C
:1031100002F400600028EFD1486B00F0040010B109
:1031200004208863EEE7486B00F0010010B1012035
:103130008863E7E7C52088630020E3E79800002064
:1031400010B5014613480068C0084FF47A74B0FB0C
:10315000F4F041F2883400FB04F300BF181EA3F121
:10316000010302D14FF0004010BD4A6B02F0450050
:103170000028F3D002F400600028EFD1486B00F083
:10318000040010B104208863EEE7C52088630020A6
:10319000EAE70000980000202DE9F04304460F46BE
:1031A00090462A480068C0084FF47A71B0FBF1F0ED
:1031B00041F2883100FB01F900BFB9F10000A9F12B
:1031C000010903D14FF00040BDE8F083666B06F0C3
:1031D00045000028F1D006F400600028EDD1606BB6
:1031E00000F0040010B10420A063EDE7606B00F074
:1031F000010010B10120A063E6E72046FFF74BFC79
:10320000B84201D00120DFE7C520A063002120469D
:10321000FFF74AFC054605F4604020B9280CA8F8E1
:1032200000000020D0E705F48040B0F5804F02D1C7
:103230004FF40050C8E705F40040B0F5004F02D14C
:103240004FF48050C0E74FF48030BDE79800002075
:1032500010B5014618480068C0084FF47A74B0FBF6
:10326000F4F041F2883400FB04F300BF181EA3F110
:10327000010302D14FF0004010BD4A6B02F045003F
:103280000028F3D002F400600028EFD1486B00F072
:10329000040010B104208863EEE7486B00F00100E1
:1032A00010B101208863E7E7486B00F0400008B1E7
:1032B000402088630020DFE79800002010B5044616
:1032C000012007490870FDF789F828B904480078FB
:1032D00020F00100024908700148007810BD00008C
:1032E0008500002070B50546AC6B40F23A5021686D
:1032F00088632046FEF719FE0646012084F8340054
:1033000000202063062E01D0052E05D12068FFF78E
:1033100099FDA16B0843A063A06B18B92046FEF786
:10332000A1FC02E02046FEF707FD70BD70B5054622
:10333000AC6B40F23A50216888632046FEF7F5FDF9
:103340000646012084F8340000202063062E01D0B8
:10335000052E05D12068FFF775FDA16B0843A0631A
:10336000A06B18B92046FEF77DFC02E02046FEF770
:10337000E3FC70BD2DE9F04389B004460F46FDF72C
:103380006BFF81464FF000080020019002903E46FE
:1033900008212068FFF712FC05461DB1284609B038
:1033A000BDE8F0835022125B11042068FFF7CBFBCD
:1033B00005460DB12846F2E74FF0FF300390082094
:1033C00004903020059002200690002007900120F4
:1033D000089003A92068FFF748FB2068FFF7DDFC91
:1033E00005460DB12846DAE71CE02068406B00F482
:1033F000001040B12068FFF788FB01A941F82800C0
:1034000008F1010805E02068406B00F4005000B9A5
:103410000EE0FDF721FFA0EB0900401C10B94FF0B2
:103420000040BCE72068406B00F02A000028DCD098
:1034300000BF2068406B00F0080018B10820216828
:103440008863ACE72068406B00F0020018B10220EE
:1034500021688863A3E72068406B00F0200018B162
:103460002020216888639AE740F23A5021688863F7
:1034700002980006029901F47F4140EA0120029976
:1034800001F47F0140EA1120029940EA11603060A6
:10349000361D01980006019901F47F4140EA0120A0
:1034A000019901F47F0140EA1120019940EA11607D
:1034B0003060002073E7000070B504460D46054AF1
:1034C0002946204601F0CCF908B1002070BD01204A
:1034D000FCE70000A800002030B58FB004460120B2
:1034E00003902068FFF7DBFA18B94FF080600FB047
:1034F00030BD606C03281BD02068FFF71CFC05461C
:103500000DB12846F3E700212068FFF7CDFA606788
:1035100004212068FFF7C8FAA06708212068FFF798
:10352000C3FAE0670C212068FFF7BEFA802108513A
:10353000606C032807D003A92068FFF766FC0546E6
:103540000DB12846D3E7606C032820D0BDF80C10DD
:1035500021655022125B11042068FFF705FC054627
:103560000DB12846C3E700212068FFF79DFA606689
:1035700004212068FFF798FAA06608212068FFF769
:1035800093FAE0660C212068FFF78EFA2067042189
:103590002068FFF789FA010DE16404A92046FEF7CF
:1035A000CDFB10B14FF08050A1E75020005B01042B
:1035B0000A4600232068FFF7A1FB05460DB1284607
:1035C00095E7D4E90412A069CDE90012029094E8CD
:1035D0000F00FFF777FA002089E70000F8B50446EE
:1035E00000200090002600272068FFF71FFB0546FB
:1035F0000DB12846F8BD2068FFF72EFB054645B102
:103600000021A1642068FFF711FB05461DB1284683
:10361000F0E70121A164A06C012808D100212068F5
:10362000FFF791FA054615B14FF08050E2E71DE033
:1036300000212068FFF787FA05460DB12846D9E733
:1036400018492068FFF79CFA054615B14FF08050E5
:10365000D0E700212068FFF727FA0646012080EA1C
:10366000D67080F001070098401C00904FF6FF7163
:103670000098884201D2002FDAD04FF6FF710098EF
:10368000884202D34FF08070B4E706F08040B0F17A
:10369000804F02D10120606401E0002060640020BE
:1036A000A8E70000000010C12DE9F0410546AC6A12
:1036B000EF6AE7B14FF0000814E02868FFF725FA39
:1036C00006462670641C7F1E300A2070641C7F1E14
:1036D000300C2070641C7F1E300E2070641C7F1E16
:1036E00008F10108B8F1080FE7D3AC62EF62BDE85A
:1036F000F08170B504460D4615B94FF0006070BDFD
:103700005022125B11042068FFF763FB06460EB1DE
:103710003046F4E700212068FFF7C6F92860002052
:10372000EDE77CB504460020009001900021206860
:10373000FFF7BAF900F00070B0F1007F02D14FF44A
:1037400000607CBD69462046FFF714FE05460DB1BA
:103750002846F6E7019800F4803098B15022125BB9
:1037600011042068FFF7EFF905460DB12846E8E798
:1037700000212068FFF73EFA05460DB12846E0E734
:103780000020DEE74FF08060DBE77CB504460020D8
:103790000090019000212068FFF786F900F000708A
:1037A000B0F1007F02D14FF400607CBD6946204635
:1037B000FFF7E0FD05460DB12846F6E7019800F455
:1037C000802098B15022125B11042068FFF7BBF9EA
:1037D00005460DB12846E8E702212068FFF70AFAFE
:1037E00005460DB12846E0E70020DEE74FF0806097
:1037F000DBE7F8B505462C6A6E6A1EB300271DE0AC
:1038000020780090641C761E2078009941EA002000
:103810000090641C761E2078009941EA00400090D8
:10382000641C761E2078009941EA00600090641CB8
:10383000761E69462868FFF780F97F1C082FDFD3C2
:103840002C626E62F8BD000010B5044601200649E6
:103850000870FCF7CFFD20B92046FFF72FFD024985
:1038600008700148007810BD85000020F0B589B0CF
:1038700007460D46144601261648007800F0010060
:1038800010B1032009B0F0BD35B1012D06D0022DD5
:103890000BD0032D18D10FE0002617E001A8FCF78C
:1038A00093FD07982060002610E001A8FCF78CFD2E
:1038B00008982080002609E001A8FCF785FD0898FB
:1038C000400A2060002601E0042600BF00BF304609
:1038D000D8E70000850000202DE9F04180460C4625
:1038E00015461E460127BB1E324629462046FCF7D8
:1038F0009FFD28B900BFFCF771FD0028FBD1002710
:103900003846BDE8F08110B504462046FFF7D6FCE6
:1039100010BD2DE9F04180460C4615461E46012794
:10392000BB1E324629462046FCF79CFD28B900BF45
:10393000FCF754FD0028FBD100273846BDE8F08194
:10394000704710B5FDF78EFC10BD000000B593B0B8
:10395000302107A8FCF786FC142102A8FCF782FCA2
:1039600000BF002001902448006840F080502249A8
:1039700008600846006800F08050019000BF00BF5A
:1039800000BF002001901D48006840F440401B49E2
:1039900008600846006800F44040019000BF00BF86
:1039A0000220079001200A9010200B9002200D9019
:1039B00000210E9108210F91642110910221119193
:1039C0000521129107A8FDF7FFFE08B1FCF7E6FDFF
:1039D0000F20029002200390002004904FF48050AA
:1039E000059000200690032102A8FDF713FD08B101
:1039F000FCF7D4FD13B000BD403802400070004019
:103A00000348006840F470000149086070470000F6
:103A100088ED00E000BFFEE70FB4054B10B503A929
:103A2000044A029800F034F810BC5DF814FB000062
:103A3000AD540008A400002002480068C0F3022032
:103A4000704700000CED00E010B5002804DB0A0709
:103A5000130E054A135406E00A07140E034A00F039
:103A60000F031B1FD45410BD00E400E018ED00E06C
:103A700002E008C8121F08C1002AFAD17047704737
:103A8000002001E001C1121F002AFBD17047000095
:103A90002DE9FF4F89B09B460446002506E0252806
:103AA0000BD05A460B999047641C6D1C2078002857
:103AB000F5D10DB02846BDE8F08F0027B8460122A9
:103AC000474900E0074314F8013F203B02FA03F0A6
:103AD0000842F7D120782E2819D114F8010F47F0A9
:103AE00004072A280ED06FF02F022078A0F13001B1
:103AF00009290CD808EB880102EB410100EB010811
:103B0000641CF2E70A98641C50F8048B0A90207831
:103B10000028CED0642808D0692806D075281ED089
:103B20005A460B9990476D1C58E00A994FF00A09C4
:103B300001C90A91002802DA40422D2102E039052C
:103B400004D52B218DF82010012103E0F90704D0C2
:103B50002021F7E78A4608AE0DE00021FAE70A992E
:103B60004FF00A0901C90A91F7E74946FCF794FBAF
:103B7000303106F8011D0028F7D1ADEB060000F149
:103B80002009780701D44FF00108C84502DDA8EBF1
:103B9000090000E000208046002706E008A85A46F9
:103BA000C05D0B9990476D1C7F1C5745F6DB04E008
:103BB00030205A460B9990476D1CB8F10001A8F1CE
:103BC0000108F5DC05E016F8010B5A460B99904701
:103BD0006D1CB9F10001A9F10109F4DC641C65E771
:103BE0000928010070B504460D460020E070401E13
:103BF000A0632946204601F095FF08B1042070BD5E
:103C000004F23A2001F099FE4AF65521884201D08B
:103C10000320F4E794F83C00E92807D094F83C002E
:103C2000EB2817D13E20005D902813D104F17200DB
:103C300001F077FE20F07F400749884201D1002043
:103C4000DDE704F18E0001F06CFE0449884201D1E9
:103C50000020D4E70220D2E74641540046415433C5
:103C6000024600E0521C107810B110788842F9D159
:103C70001078704730B502460B46002004460146D6
:103C80001CE01A4800EB01100068A8B1174800EBCF
:103C9000011000681568A8420FD1144800EB01100C
:103CA00040689568A84208D1104800EB0110806870
:103CB0005569A84201D103E00124491C0229E0D33F
:103CC00000BF022906D10CB9022B01D1002030BD62
:103CD0001220FCE733B9054800EB01108089B0F5EC
:103CE000807F01D11020F2E70020F0E7CC240020F3
:103CF000014600200BE0074A02EB001212688A42DC
:103D000004D10022034B03EB00131A60401C02286D
:103D1000F1D37047CC240020F0B503460D461E6851
:103D2000D86A021DB089B5FBF0F07789B0FBF7F4D3
:103D300000BF02CA09B90020F0BD8C4200D202E0E7
:103D4000641A121DF5E700BF10682044F4E702462C
:103D5000891E106A801E884201D80020704753894E
:103D6000506B01FB0300F9E72DE9F04780460C4654
:103D700004F11A0001F0E1FD10B10020BDE8F08768
:103D8000207800F03F00401E00EB800101EBC005F1
:103D90004FF00109002621E01849895D081901F05A
:103DA000CCFD0746B9F1000F11D0FF2D0BD23846DC
:103DB00001F00EF9824629466D1C38F8110001F019
:103DC00007F9824501D00020D8E7B94605E04FF653
:103DD000FF70874201D00020D0E7761C0D2EDBD388
:103DE000207800F0400038B1B9F1000F04D038F865
:103DF000150008B10020C1E70120BFE7E860000816
:103E00002DE9F04782468946DAF80040B9F1000F03
:103E100006D1676917B1206AB84215D8012713E0A7
:103E20004946504601F0ACFB0646022E02D2012064
:103E3000BDE8F087701C08B93046F9E7206AB04247
:103E400001D93046F4E74F463D4600BF6D1C206A5D
:103E5000A84204D80225BD4201D90020E8E729463E
:103E6000504601F08DFB064606B909E0012E01D04F
:103E7000701C08B93046DBE7BD42E7D10020D7E728
:103E800000BF4FF0FF322946204601F0A9FE8046D0
:103E9000B8F1000F08D1B9F1000F05D02A46494604
:103EA000204601F09DFE8046B8F1000F0DD16561FE
:103EB000206A801EA169814202D8A069401EA061CB
:103EC000207940F00100207107E0B8F1010F02D124
:103ED0004FF0FF3000E0012005462846A8E700002B
:103EE0002DE9F34F83B08146049800680190D9F81A
:103EF0000000D0F8108000200546064600BF30467E
:103F0000761C01990C5C202C00DA2BE02F2C01D0C0
:103F10005C2C0AD100E0761C0198805D2F28FAD035
:103F20000198805D5C28F6D01CE0FF2D03D30620AD
:103F300005B0BDE8F08FE4B20121204601F022F87F
:103F400004460CB90620F3E7802C06DA214680A04F
:103F5000FFF786FE08B10620EAE728466D1C28F820
:103F60001040CCE700BF0198811904980160202C13
:103F700001DA042000E000200746012D04D1681E6C
:103F800038F810002E280BD0022D24D1681E38F8E6
:103F900010002E281FD1A81E38F810002E281AD184
:103FA000002028F8150083460AE0AB4501D22E21F7
:103FB00000E0202109F1240000F80B100BF1010BA7
:103FC000BBF10B0FF1D347F0200109F1240000F8F9
:103FD0000B100020ACE708E0681E38F81040202CD9
:103FE00002D02E2C00D002E06D1E002DF4D100BFB7
:103FF000002028F815000DB9062099E70B22202192
:1040000009F1240001F085FD002600E0761C38F857
:1040100016002028FAD038F816002E28F6D00EB157
:1040200047F0030700E06D1E25B1681E38F8100048
:104030002E28F8D14FF0000AD3460820029000BF86
:104040003046761C38F8104004B954E0202C03D0D8
:104050002E2C04D1AE4202D047F00307F0E70298BD
:10406000834501D2AE4216D102980B2802D147F007
:10407000030740E0AE4201D047F00307AE4200D94B
:1040800039E02E464FF0080B0B2002904FEA8A6071
:104090004FEA106AD4E7802C0BDB0021204600F0A9
:1040A00071FF04461CB1A4F180002C490C5C47F060
:1040B000020700BF24B1214629A0FFF7D1FD18B1A6
:1040C0005F2447F003070FE0412C04DB5A2C02DC8D
:1040D0004AF0020A08E0612C06DB7A2C04DC4AF084
:1040E000010AA4F1200084B258460BF1010B09F13A
:1040F00024010C54A4E700BF99F82400E52802D15C
:10410000052089F824000298082803D14FEA8A6024
:104110004FEA106A0AF00C000C2803D00AF00300E2
:10412000032801D147F0020707F0020058B90AF04E
:104130000300012801D147F010070AF00C00042801
:1041400001D147F008072F2000F809700020EFE6A2
:10415000222A3A3C3E3F7C7F000000006860000855
:104160002B2C3B3D5B5D000010B50246531E1A46EA
:10417000022B17D20C4B03EB02139989B1F5807F08
:1041800000D10021002901DD4B1E99B2064B03EB43
:104190000213998121B90023034C04EB021423601C
:1041A000002000E0022010BDCC2400202DE9F041C9
:1041B00004460E46D4F800800021204600F06BFA39
:1041C0000546EDB9002700BF4046E16901F0AAFCB1
:1041D000054605B113E0206A0078E52802D0206A80
:1041E000007820B9781C0746B04201D107E00027CB
:1041F0000121204600F088F80546002DE4D000BFDC
:10420000042D00D107252846BDE8F0812DE9F047AF
:104210000446D4F800A00021204600F03CFA0646EF
:1042200016B13046BDE8F0874FF0FF08C1464FF0A9
:10423000FF30206300BF5046E16901F073FC064681
:1042400006B15EE0206A05780DB9042659E0206ABF
:10425000C07A00F03F07A771E52D04D007F00800F1
:1042600038B10F2F05D04FF0FF084FF0FF3020631B
:1042700040E00F2F22D12F20005D00F0400098BBBE
:1042800005F0400038B1206A90F80D9005F0BF05A8
:10429000A8466069206345450CD1206A407B4845AB
:1042A00008D1216ADAF81000FFF75EFD10B1A8F11D
:1042B000010000E0FF2000F0FF081BE0B8F1000F54
:1042C00005D1206A01F00BFE484500D119E02F20EE
:1042D000005D00F0010040B90B2204F12401206AC6
:1042E00001F0F8FB08B90CE004E04FF0FF084FF0D4
:1042F000FF3020630021204600F006F80646002E1D
:1043000099D000BF30468DE72DE9F0470546894634
:104310002C68686900F12007E86910B1B7F5001F43
:1043200002D30420BDE8F087A089B7FBF0F100FBC1
:104330001170002869D1E869401CE861A86938B9A2
:104340002089B0EB571F60D80020E8610420E9E71E
:10435000A089B7FBF0F06189491E0840002854D1BC
:104360002846A96901F00CF90646012E01D8022061
:10437000D8E7701C08B90120D4E7206AB0423ED8C3
:10438000B9F1000F03D10020E8610420CAE72846F4
:10439000A969FFF735FD06460EB90720C2E7012ED1
:1043A00001D10220BEE7701C08B90120BAE72046FF
:1043B00001F0EEFD08B10120B4E7A289002104F16B
:1043C0003C0001F0A6FB4FF0000831462046FFF705
:1043D000BEFCA0630CE00120E070204601F0D8FD97
:1043E00008B101209EE708F10108A06B401CA06302
:1043F00060894045EFD8A06BA0EB0800A063AE61D8
:1044000031462046FFF7A3FCE8616F61A089B7FB46
:10441000F0F100FB117104F13C0008442862002017
:1044200080E72DE9F05F044689460426D4F800A011
:104430004FF0FF08C34653E05046E16901F072FBBC
:10444000064606B14FE0206A05780DB904264AE019
:10445000206AC07A00F03F07A771E52D0AD02E2D03
:1044600008D027F02000082801D1012000E000201A
:10447000484502D04FF0FF082BE00F2F1DD105F06B
:10448000400038B1206A90F80DB005F0BF05A8468D
:104490006069206345450CD1206A407B584508D1AE
:1044A000216ADAF8100001F057FB10B1A8F1010001
:1044B00000E0FF2000F0FF080BE0B8F1000F04D18E
:1044C000206A01F00CFD584502D04FF0FF30206308
:1044D00009E000212046FFF717FF064606B102E07B
:1044E000E0690028A8D100BF0EB10020E06130468D
:1044F000BDE8F09F2DE9FE4F044626682F20005DA1
:1045000000F0A00010B10620BDE8FE8F4FF00009BA
:1045100001E009F10109306930F819000028F8D1EB
:104520000C2204F12401684601F0E6FA9DF80B0024
:1045300000F0010028B340212F2001554FF0010861
:104540000EE04346694604F12400326900F0BEFFE4
:104550002046FFF75BFE054605B104E008F10108BF
:10456000B8F1640FEDD300BFB8F1640F01D107209B
:10457000CAE7042D01D02846C6E79DF80B102F206E
:1045800001559DF80B0000F0020030B109F10C005C
:104590000D21B0FBF1F0401C00E001200746394638
:1045A0002046FFF703FE05464DBB781E071E26D0AA
:1045B0006069A0EB4711204600F06DF80546F5B99B
:1045C00004F1240001F08BFC824600BF3046E16913
:1045D00001F0A8FA054605B110E0FAB2216A534687
:1045E000306901F0C5FB0120F07000212046FFF783
:1045F0008BFE054615B9781E071EE7D100BFC5B969
:104600003046E16901F08EFA054695B92022002175
:10461000206A01F07EFA0B2204F12401206A01F0E5
:104620006BFA2F20005D00F01800216A087301204A
:10463000F070284668E72DE9F0410446266867696E
:10464000206B401C08B9002003E02046216B00F0DD
:1046500022F80546E5B900BF3046E16901F062FA8B
:10466000054605B110E000BFE520216A0870012071
:10467000F0706069B84200D306E000212046FFF7E1
:1046800043FE0546002DE7D000BF042D00D10225D2
:104690002846BDE8F0812DE9F04104460E46256824
:1046A000B6F5001F02D206F01F0010B10220BDE8CF
:1046B000F0816661A7681FB92878032800DB2F6B9B
:1046C00047B92889B0EB561F01D80220EFE7286BC5
:1046D000E0611DE06889A98900FB01F811E0394615
:1046E000204600F04DFF0746781C08B90120DEE7A0
:1046F000022F02D3286AB84201D80220D7E7A6EBDE
:1047000008064645EBD239462846FFF720FBE06114
:10471000A761E06908B90220C9E7A889B6FBF0F0F3
:10472000E1690844E061A889B6FBF0F100FB116182
:1047300005F13C00084420620020B8E770B504464B
:1047400000250848005D58B901200649085501F1C7
:104750000802105D0A1D52F824201168884705469A
:10476000284670BDEC2600202DE9F04104460D4698
:1047700016460649085D091F51F8241032460B6998
:104780002946984707463846BDE8F081F4260020C0
:104790002DE9F04104460D4616461F460749085DBF
:1047A000091F51F824103B463246D1F808C029466B
:1047B000E04780464046BDE8F0810000F426002036
:1047C00070B50446044A105D121F52F82420516847
:1047D00088470546284670BDF42600202DE9F041A3
:1047E00004460D4616461F460749085D091F51F845
:1047F00024103B463246D1F80CC02946E04780469B
:104800004046BDE8F0810000F4260020002100E0D1
:10481000491C022905D2064800EB01100068002857
:10482000F6D1022901D0012070470020FCE70000EA
:10483000CC24002038B50546284600F0EBFA0446A3
:1048400064B96946284601F0CCFB044634B92869AE
:10485000FFF78AFC04460CB900202860204638BDCA
:104860002DE9FC4707468846914600253E4615E05F
:104870006B46012201A9484600F0B6F900980128CC
:1048800000D00FE09DF804400D2C00D106E006F8A2
:10489000014B6D1C0A2C00D104E000BFA8F10100FF
:1048A000A842E5DC00BF0020307015B13846BDE8F5
:1048B000FC870020FBE70000F7B582B0164603989E
:1048C000019001A800F098FF0546002D02DA0B20A8
:1048D00005B0F0BD0F4850F8254024B12046FFF741
:1048E00007FA00202070029810B100200299087089
:1048F0000849029841F82500029808B1012E01D01C
:104900000020E5E7002202A903A800F0B3FB074658
:104910003846DDE79C0000202DE9F74F90B00446B3
:1049200016461CB9092013B0BDE8F08F06F03F060B
:10493000324602A911A800F09DFB0546002D79D151
:104940000298039003A8119900F042FD05468DB925
:104950009DF83B0000F0800008B106250AE026F033
:10496000010008B1012000E00020014603A8FFF784
:1049700081F9054606F01C0000285CD06DB1042DBD
:1049800008D1FFF743FF18B103A8FFF7B3FD00E01C
:104990001220054646F008060AE09DF8120000F0D5
:1049A000110008B1072503E006F0040000B1082556
:1049B000002D51D106F0080000284DD000F079FEFE
:1049C00001900B9901F10E00019901F070FA0B9919
:1049D00001F11600019901F06AFA20200B99C872C2
:1049E0000B99029800F08AFF814600220B990298E9
:1049F00001F04BFA0B9901F11C00002101F057FA6C
:104A000001200299C870B9F1000F25D00298806B7F
:104A100001900022494603A801F0EAF90546DDB9F4
:104A2000DDE9011001F07EF80546A9F101000299C7
:104A3000486111E07BE07DB99DF8120000F01000A4
:104A400008B1042508E006F0020028B19DF8120024
:104A500000F0010000B10725BDB906F0080008B15B
:104A600046F040060298806B60620B98A06226F0C8
:104A7000010008B1012000E00020014603A800F079
:104A8000DFFE2061206900B90225002D60D10B995D
:104A9000029800F033FFA0600B9901F11C0000F0B8
:104AA00040FFE0600020E062029820600298C08829
:104AB000A0802675002060752062A0614FF48052AE
:104AC000002104F1300001F024F806F0200070B35A
:104AD000E06860B3E068A061029840890299898922
:104AE00000FB01FAA768D4F80C800CE03946204698
:104AF00000F046FD0746012F00D80225781C00B9BA
:104B00000125A8EB0A080DB9D045EFD8E76175B9C2
:104B100002988089B8FBF0F100FB118038B139466A
:104B20000298FFF714F9B0F1000B01D102250FE054
:104B300002988089B8FBF0F058442062226A0299FA
:104B40004878012304F13001FFF722FE00B101256E
:104B50000DB1002020602846E5E673B582B0064618
:104B600016B9092004B070BD3446002201A903A87B
:104B700000F080FA0546002D31D1019820603046C2
:104B8000039900F025FC05461DBB2F20805D00F039
:104B9000800050B9A07900F0100028B1316A019866
:104BA00000F0ACFEA06000E0052595B90198C08832
:104BB000A08000213046FFF76EFD05464DB9A06884
:104BC00040B10021304600F03BFE2061206900B971
:104BD000122501E000202061042D00D105250DB132
:104BE000002020602846BDE72DE9FF4F85B0044630
:104BF00015469A46DDF818B00020CAF8000003A94F
:104C0000204601F0EEF90490049810B9607D0490FC
:104C100018B1049809B0BDE8F08F207D00F00100C4
:104C200008B90720F6E7A169E068401A01900198E9
:104C3000854200D9019DC1E0A06903998989B0FB33
:104C4000F1F201FB120000287ED1A0690399898945
:104C5000B0FBF1F003994989491E00EA0109B9F155
:104C6000000F1FD1A06910B9A06802900CE0E06AA3
:104C700028B12046A169FFF74FF8029004E02046D2
:104C8000E16900F07DFC02900298022802D2022025
:104C90006075BFE70298401C10B901206075B9E744
:104CA0000298E061E1690398FFF751F8064616B9EA
:104CB00002206075AEE74E4403988089B5FBF0F89A
:104CC000B8F1000F2DD009EB0800039949898842FB
:104CD00003D903984089A0EB090803994878434613
:104CE00032465946FFF754FD10B10120607591E737
:104CF000207D00F0800078B1206A801B40450BD2F7
:104D0000216A891B039B9B8901FB03B003998A8954
:104D100004F1300100F0F0FE0398808900FB08F7F1
:104D200042E0206AB04220D0207D00F0800080B1B7
:104D3000226A03994878012304F13001FFF74EFD00
:104D400018B10120607565E710E0207D00F07F005C
:104D50002075039948780123324604F13001FFF7AA
:104D600017FD10B10120607554E72662A069039910
:104D70008989B0FBF1F201FB1200039989890F1AAE
:104D8000AF4200D92F46A06903998989B0FBF1F29F
:104D900001FB120104F1300008443A46014600903C
:104DA000584600F0A9FE00BFBB44A0693844A0618A
:104DB000DAF800003844CAF80000ED1B002D7FF43B
:104DC0003BAF002026E7F8B506460D46694630465B
:104DD00001F007F90446DCB92DB900213046FFF790
:104DE0005AFC044614E000213046FFF71AFB044643
:104DF000042C00D100245CB92946304600F05BFC4D
:104E000000213046FFF780FA0446042C00D100242C
:104E10002046F8BDF8B504466946204601F0E1F8A1
:104E20000646002E44D1207D00F0400000283FD0EF
:104E3000207D00F0800070B1226A0099487801233B
:104E400004F13001FFF7CAFC08B10120F8BD207D54
:104E500000F07F00207500F02CFC0746616A009886
:104E600000F060FE06461EBBA56AE87A40F020000E
:104E7000E8722946A268206801F007F805F11C00D5
:104E8000E16801F014F8394605F1160001F00FF859
:104E9000002105F1120001F016F801200099C870F8
:104EA000009801F02DF80646207D00F0BF00207527
:104EB0003046CBE731B59CB00025022201A91CA8E1
:104EC00000F0D8F8044601980F90002C56D10FA896
:104ED0001C9900F07DFA04462CB99DF86B0000F097
:104EE000200000B1062424B902210FA8FEF7C2FE5B
:104EF0000446002C42D19DF86B0000F0800008B100
:104F0000062405E09DF8420000F0010000B10724EE
:104F100014BB1799019800F0F1FC05469DF842007A
:104F200000F01000C0B10198C069A84201D1072467
:104F300012E0019802900495002102A8FFF7ABFB54
:104F400004464CB9002102A8FFF76BFA044604B9E5
:104F50000724042C00D1002484B90FA8FFF76BFBB1
:104F6000044634B92DB1002229460FA800F040FFB5
:104F700004461CB9019800F0C3FF044620461DB04A
:104F800030BD000010B50246802A01DA10461BE051
:104F900051B1FF2A01DD002304E0A2F180030B4C94
:104FA00034F8133018460FE0002007E0074B33F8C1
:104FB0001030934200D103E0431C98B28028F5DB07
:104FC00000BF00F18003D8B210BD000012610008DC
:104FD00030B5B0F5805F01DA244D00E0244D29465C
:104FE00000BF31F8022B0AB1904200DA3CE031F800
:104FF000023B1C12DBB2D518854230DD092C2CD2C5
:10500000DFE804F005090F13171B1F232700851A7B
:1050100031F8150021E0851A05F00105451BA8B2FD
:105020001BE0A0F11005A8B217E0A0F12005A8B27E
:1050300013E0A0F13005A8B20FE0A0F11A05A8B264
:105040000BE000F10805A8B207E0A0F15005A8B2F6
:1050500003E0A0F5E355A8B200BF00BF04E0002CB8
:10506000BFD101EB4301BCE700BF30BD12620008B5
:10507000046400082DE9F74F8AB000210B98016005
:105080000A9800F0B9FB08900898002803DA0B2072
:105090000DB0BDE8F08FC949089851F820400CB90F
:1050A0000C20F5E70B9804600C9800F0FE000C90C3
:1050B000207878B16078FFF783FB814609F0010022
:1050C00040B90C9820B109F0040008B10A20DFE7CC
:1050D0000020DDE700202070089860706078FFF7FE
:1050E0002DFB814609F0010008B10320D0E70C98A0
:1050F00020B109F0040008B10A20C9E7607804F182
:105100000C020221FFF730FB08B10120C0E7A089A3
:10511000B0F5805F07DCA089B0F5007F03DBA089D4
:10512000411E084008B10120B2E700273946204659
:10513000FEF758FD0546022D01D02EDA2DE000269F
:1051400014E04FF4DF7000EB061104F13C0008445A
:1051500009900998007920B10998083000F0E1FB26
:1051600000E0002002A941F82600761C042EE8D3B6
:10517000002606B1761E00BF02A850F8267027B19F
:1051800039462046FEF72EFD00E003200546022D9D
:1051900003DB701C06460428EED3042D01D1012048
:1051A00076E7022D01DB0D2072E704F1470000F0E5
:1051B000C4FBA189884201D00D2069E704F15200A7
:1051C00000F0BBFB8046B8F1000F04D104F1600091
:1051D00000F0A7FB8046C4F824804C20005DA0703E
:1051E000A078012804D0A078022801D00D204FE734
:1051F000A07808FB00F84920005D6081608918B143
:105200006089411E084008B10D2041E704F14D00BE
:1052100000F093FB2081A089C11700EBD1614911F7
:10522000228992FBF1F301FB132109B10D202FE735
:1052300004F14F0000F081FB8246BAF1000F04D167
:1052400004F15C0000F06DFB824604F14A0000F0BE
:1052500074FB0190019808B90D2019E7A089C117C6
:1052600000EBD1614911228992FBF1F2019941448D
:105270001144079107998A4501D20D2008E7079844
:10528000AAEB00006189B0FBF1FBBBF1000F01D17B
:105290000D20FDE603254FF6F570834500D8022565
:1052A00040F6F570834500D801250BF1020020621D
:1052B000A76201983844E062079838446063032D80
:1052C00013D104F1660000F038FB08B10D20DFE6D1
:1052D000208908B10D20DBE604F1680000F021FB15
:1052E0002063206A8000069015E0208908B90D200F
:1052F000CEE6E06A40442063022D02D1206A4000DD
:1053000008E094F8200000F00100216A01EB41015F
:1053100000EB51000690A089401E06990844A1891F
:10532000B0FBF1F0616A884201D90D20B0E64FF080
:10533000FF30A061606180202071032D2CD104F129
:105340006C0000F0FAFA012826D1791C204600F002
:10535000E9FB08BB0020207104F23A2000F0EDFACE
:105360004AF65521884217D104F13C0000F0D9FAE1
:105370001349884210D104F5087000F0D2FA11499F
:10538000884209D104F5097000F0CBFAA06104F558
:105390000A7000F0C6FA606125700B480088401C56
:1053A00080B209490880E080084820610020E0615F
:1053B0002046FEF79DFC00206AE600009C000020CD
:1053C0005252614172724161A0000020EC24002021
:1053D0002DE9F34704462746D7F800800198007866
:1053E0002F2807D0019800785C2803D0D8F81C003B
:1053F000B8600DE002E00198401C0190019800782F
:105400002F28F8D0019800785C28F4D00020B860EC
:1054100001980078202808D280212F2001550021F2
:105420002046FFF738F905463DE000BF01A92046B8
:10543000FEF756FD054605B134E02046FEF7E6FED0
:1054400005462F20065D95B1042D0FD106F02000F2
:1054500040B106F0040000B9E8E780212F20015593
:10546000002503E006F0040000B905251AE006F067
:10547000040000B116E0B87900F0100008B9052565
:1054800010E0B8F80C106069B0FBF1F201FB1201FA
:1054900008F13C0001EB00094946404600F02EFAB5
:1054A000B860C3E700BF2846BDE8FC8770B5054675
:1054B0000C460548844203D1284600F00AFD70BD21
:1054C0004FF0FF30FBE70000A40000202DE9FF4F64
:1054D00083B0814690461D460B224846049900F051
:1054E0000BFB052D18D92F4611E038F802BB00241C
:1054F0000BE0584667F35F0007464FEA6B0B07F473
:10550000803008B11D484740641C102CF1D3B8F816
:1055100000000028E9D13D46072400BF05F00F0038
:1055200000F1300ABAF1390F03DD0AF1070000F08B
:10553000FF0A2046641E01A901F800A02D09002DD4
:10554000ECD17E200855002600E0761CA64203D24E
:1055500019F806002028F8D100BF082C04D22046F4
:10556000641C01A9085C00E020203146761C09F883
:105570000100082EF1D307B0BDE8F08F2110010023
:105580002DE9F05F81460D46D9F80040022D02D387
:10559000206AA84202D84FF0010887E04FF0FF3898
:1055A0002078012804D002283AD003287AD156E086
:1055B0002E4606EB5606A089B6FBF0F0E16A00EB3A
:1055C000010A5146204600F0ADFA00B16DE03046C8
:1055D000761CA189B0FBF1F201FB120104F13C0041
:1055E000475CA089B6FBF0F0E16A00EB010A514686
:1055F000204600F097FA00B157E0A089B6FBF0F121
:1056000000FB116104F13C00405C47EA002705F013
:10561000010008B1380901E0C7F30B00804644E0FF
:10562000B4F80CA00AEBDA704010B5FBF0F0E16AB8
:1056300000EB010B5946204600F074FA00B134E04B
:105640006800A189B0FBF1F201FB120104F13C00FA
:1056500001EB000A504600F070F9804625E0B4F8EE
:105660000CA04FEAEA700AEB90708010B5FBF0F0E6
:10567000E16A00EB010B5946204600F053FA00B1F5
:1056800013E0A800A189B0FBF1F201FB120104F1C3
:105690003C0001EB000A504600F043F920F070484E
:1056A00003E0FFE74FF0010800BF00BF4046BDE840
:1056B000F09F002070472DE9F84F05460C462868FA
:1056C00000900020A075E86908B9BDE8F88F286B44
:1056D000401C28B30026374614E000215846FFF747
:1056E00051FC8346BBF1000F01D1002713E000BF3E
:1056F000FF2F01D300270EE038467F1C04F116016E
:1057000001F800B0009802693046761C32F81000AB
:10571000B0F1000BE1D100BF002104F11600C1552A
:1057200000200646074604F1160010F807A03CE0EA
:1057300038467F1C2A6A12F80080B8F1200F00D189
:1057400033E0B8F1050F01D14FF0E508092F0CD176
:10575000BAF1000F03D12E2104F1160081552E223B
:105760003046761C04F109010A5404F1090000F8DE
:105770000680BAF1000F16D1B8F1410F0FDBB8F176
:105780005A0F0CDC286A007B092F01D3102100E09E
:105790000821084018B108F1200000F0FF0804F1CA
:1057A000160000F80680761C00BF0B2FC0D3BAF19C
:1057B000000F07D1002104F116008155286A007BF3
:1057C00000B90026002104F109008155286AC07A39
:1057D0002072296A01F11C0000F0A3F82060296AF8
:1057E00001F1160000F09DF88146A4F806904FEAFA
:1057F0001940A08000BF68E770B502464FF0FF3047
:105800001568DDB1116800E0491C0D78202D02D328
:105810000D783A2DF8D10D783A2D0ED1146814F880
:10582000015BA5F130030A2B06D28C4204D11BB9CF
:1058300018464D1C2946156070BD002000BFFBE7CF
:1058400010B502460B46002116E02B4800EB011074
:1058500000681468A0420ED1274800EB0110406890
:105860009468A04207D1244800EB01108068546975
:10587000A04200D102E0491C0229E6D300BF022960
:1058800022D1002100E0491C022905D21A4800EB70
:10589000011000680028F6D1022901D1002010BDB6
:1058A000154C04EB011410682060134C04EB011438
:1058B00090686060104C04EB01145069A0600020F7
:1058C0000D4C04EB0114A08133B10B4800EB011027
:1058D000808908B10020E2E713B14FF4807004E042
:1058E000054800EB01108089401C034C04EB0114B7
:1058F000A081481CD3E70000CC24002070B50546E9
:105900000C4604F11A0000F018F80646287803281F
:1059100005D104F1140000F010F846EA00463046C4
:1059200070BD0146C8788A7842EA00204A7842EA87
:1059300000200A7842EA00207047014648780A7839
:1059400042EA002070470000FBF798FCFDF7FEFFDD
:10595000FDF71AF8FCF7E6FFFDF770F8FDF706F81B
:10596000012245A14548FEF7A7FF4549087045A11A
:105970004748FFF7F2F84249087008460078D0B966
:1059800000BF44494248FFF71EFA3D4908700A2209
:105990004049163140A0FAF770FC18B9012041497E
:1059A000087007E03648007818B93A48807D00282A
:1059B000E7D100BF00BF3B480078B8B100224FF4E8
:1059C00000513948FBF742FCFAF7AEFC30B937A07A
:1059D000FFF770FA01203C49087002E000203A49C4
:1059E0000870012251033048FBF730FC364800783C
:1059F000012818D135484468254672B6FBF7CCFD1E
:105A0000FBF744FA31483249086062B62F4908680A
:105A100080F3088800BF00204FF0E0210861486152
:105A20008861A84700BF25E000224FF400511E48BE
:105A3000FBF70CFC4FF47A70FBF74AFA0122510392
:105A40001948FBF703FC40F2DC50FBF741FA002257
:105A50004FF400511448FBF7F9FB4FF49670FBF735
:105A600037FA012251031048FBF7F0FB4FF4167090
:105A7000FBF72EFAD8E7000030000000E01100200C
:105A800082000020303A2F4669726D77617265009E
:105A90001C2200205022002050726F6772616D6DD1
:105AA000657200008300002000080240303A2F4653
:105AB00069726D776172652F50726F6772616D6D7B
:105AC00065722E6865780000840000200080000860
:105AD00008ED00E0F0B503461D460C46002000BF6F
