:020000040800F2
:10800000B82D01206D820008E9EE00087B8200088F
:10801000C9EE000895820008552401080000000000
:10802000000000000000000000000000AD8100081A
:1080300033A000080000000009820008151C010898
:10804000B7820008B7820008B7820008B78200082C
:10805000B7820008B7820008B7820008B78200081C
:10806000B7820008B7820008B7820008B78200080C
:10807000B7820008B7820008B7820008B7820008FC
:10808000B7820008B7820008D58900080000000008
:10809000000000000000000000000000B78200089F
:1080A000B78200081D1D0108B7820008B7820008CA
:1080B000B78200082D1D0108B7820008B7820008AA
:1080C000B7820008B7820008B7820008B7820008AC
:1080D000B7820008B78200081924010800000000D8
:1080E000B7820008B7820008B782000800000000CD
:1080F000000000000000000000000000B78200083F
:10810000000000006DFE0008B7820008B78200087A
:10811000000000000000000000000000000000005F
:10812000B7820008A99E0008B7820008099F0008CE
:10813000B7820008000000000000000000000000FE
:10814000000000000000000000000000B7820008EE
:10815000B7820008199F0008B78200082924010887
:10816000B7820008B782000800000000000000008D
:1081700000000000000000000000000000000000FF
:1081800000000000B78200080000000000000000AE
:10819000B7820008B7820008DFF80CD000F0CAFBF5
:1081A00000480047B5560108B82D01202C4B19682E
:1081B0000868B0E8F04F80F30988BFF36F8F4FF085
:1081C000000080F311887047000000000848006834
:1081D000006880F308884FF0000080F3148862B6CE
:1081E00061B6BFF34F8FBFF36F8F00DF00BF00BFDB
:1081F00008ED00E0DFF80C00016841F47001016057
:10820000704700BF88ED00E0EFF30980BFF36F8F88
:10821000134B1A681EF0100F08BF20ED108A20E9DA
:10822000F04F106009B44FF0500080F31188BFF395
:108230004F8FBFF36F8F0FF00DFA4FF0000080F3F8
:10824000118809BC19680868B0E8F04F1EF0100FDB
:1082500008BFB0EC108A80F30988BFF36F8F7047B6
:108260008C020020EFF30580704700001248804721
:1082700012480047695E0108FEE71EF0040F0CBFBC
:10828000EFF30880EFF3098081695FF81820104749
:10829000FEE7FEE71EF0040F0CBFEFF30880EFF3DC
:1082A000098081695FF834201047FEE7FEE7FEE7AA
:1082B000FEE7FEE7FEE7FEE7FD1C010899810008E6
:1082C0002DE9F05F0546002092469B46884606460B
:1082D000814640241BE0284641464746224600F09E
:1082E0003CF953465A46C01A914110D311461846DC
:1082F000224600F023F92D1A67EB01084F4622466B
:108300000120002100F01AF917EB00094E41201E50
:10831000A4F10104DFDC484631462A464346BDE865
:10832000F09F40EA01039B0703D009E008C9121F30
:1083300008C0042AFAD203E011F8013B00F8013B1F
:10834000521EF9D27047D2B201E000F8012B491E4B
:10835000FBD270470022F6E710B513460A460446E2
:108360001946FFF7F0FF204610BD421E12F8013FEC
:10837000002BFBD111F8013B02F8013B002BF9D196
:10838000704710B5044604E00B7800F8013B03B1D8
:10839000491C521EF8D2204610BD421C10F8011B89
:1083A0000029FBD1801A704710B5002200E0521C52
:1083B000835C8C5CA34201D1002BF8D1D8B2E1B22E
:1083C000401A10BD10B5044600E0401C0378002B95
:1083D000FBD100E0401C521E04D311F8013B037096
:1083E000002BF7D100210170204610BD034611F883
:1083F000012B00F8012B002AF9D1184670472DE90E
:10840000F04D81EA030404F0004B21F000451446CE
:108410004FF0000A23F0004150EA050220D054EA50
:1084200001021DD0C5F30A570246C5F31303C1F379
:108430001300C1F30A5640F4801543F48013A7EBF0
:108440000608101BD64608F2FD3873EB050002D370
:1084500008F1010801E092185B41B8F1000F03DA5E
:1084600000200146BDE8F08D00204FF48011064643
:1084700084460EE0171B73EB050705D3121B63EB55
:10848000050306434CEA010C49084FEA30009218F4
:108490005B4150EA0107EDD152EA030012D082EAB3
:1084A000040083EA0501084305D0101BAB4106D246
:1084B0000122002306E000224FF0004302E06FF0AB
:1084C000010253101AEB06004CEB085110EB0A00A6
:1084D00041EB0B01BDE8F04D00F086B830B4044626
:1084E00096230800214604D0B62330BC002200F0B9
:1084F0004DB820460021F8E70EB540F23342029213
:108500000022CDE90022134600F07DF803B000BD43
:1085100030B50B46014600202022012409E021FA53
:1085200002F59D4205D303FA02F5491B04FA02F550
:108530002844151EA2F10102F1DC30BD202A04DB23
:10854000203A00FA02F1002070479140C2F1200366
:1085500020FA03F3194390407047202A04DB203AA5
:1085600021FA02F00021704721FA02F3D040C2F153
:10857000200291400843194670470029A8BF704760
:10858000401C490008BF20F00100704710B4B0FA49
:1085900080FC00FA0CF050EA010404BF10BC7047E4
:1085A00049B1CCF1200421FA04F411FA0CF118BFFE
:1085B000012121430843A3EB0C01CB1D4FEA0061CD
:1085C0004FEA102042BF002010BC704700EBC350A0
:1085D00010440029A4BF10BC7047401C490008BFCC
:1085E00020F0010010BC704710B5141E73F1000498
:1085F00008DA401C41F1000192185B411A4301D195
:1086000020F0010010BD2DE9F04D92469B4611B1BE
:10861000B1FA81F202E0B0FA80F220329046FFF720
:108620008DFF04460F4640EA0A0041EA0B0153461B
:108630005A46084313D0114653EA010019D0C8F135
:1086400040025046FFF789FF05460E465046594600
:108650004246FFF773FF084305D0012004E020469F
:108660003946BDE8F08D0020054346EAE0762C430C
:1086700037430A986305E40AA0EB08000022FD0ACC
:1086800044EA47540A3002D500200146E9E70105D3
:1086900010196941DDE9084500196941BDE8F04D4F
:1086A000A2E72DE9FE4F804681EA0300C00F0C4689
:1086B000009021F0004123F00045B8EB0200A941F1
:1086C00005D24046214690461C460B46024623F002
:1086D0000040104347D0270DC7F30A00C3F30A51E7
:1086E0000290401A019040286BDAC3F3130040F463
:1086F000801B0098924620B10023D2EB030A63EB63
:108700000B0B01985946C0F140025046FFF716FF87
:1087100006460D4650465946019A00F01DF910EBE9
:1087200008006141002487EA115284EAE7731A4382
:1087300040D0009A62B3019A012A4FEA075215DC31
:10874000001B61EB02014FF0004202EA0752CDE943
:108750000042001C41F5801132462B46FFF753FFC3
:1087600003B0BDE8F08F40462146F9E7001B61EBFE
:108770000201001C41F5801300185B412018A2F58E
:10878000001747EB030140EAD570B6196D4111E0BF
:108790006D084FEA360645EAC0754FEA0752001BDE
:1087A00061EB0201001C41F5801149084FEA3000DD
:1087B0000019514132462B4603B0BDE8F04FFFF798
:1087C00013BF0098012240000023D0EB020263EBAC
:1087D000E073009821464FEAE074B8EB000061EBCB
:1087E0000401E9E783F000435BE781F0004158E7CB
:1087F0002DE9FE4F81EA030404F0004421F000411A
:1088000000944FF0000B23F0004350EA01045ED0C7
:1088100052EA03045BD0C3F30A54C1F30A552C4453
:10882000A4F2F3340194A0FB0254C1F3130141F408
:108830008011C3F3130343F4801301FB024400FBD4
:10884000034E840A970A44EA815447EA8357A4FBFB
:10885000076802958D0A05FB07854FEA932C04FBF8
:108860000C542705029D4FEA065847EA1637B5EB28
:1088700008056EEB070C870E920E47EA811742EA55
:108880008312A7FB0201B6EB0B0164EB00042B0D76
:1088900043EA0C335E1844EB1C50DA465146E7FBC2
:1088A0000201C5F313044FEA0B3343EA14534FEAB2
:1088B0000432019C43EA0603A4F10C040294009CD8
:1088C000CDE900B4FFF79FFE03B0BDE8F08F0020B4
:1088D0000146F9E7C1F30A52C1F3130140F2FF3335
:1088E00041F480119A4202DA00200146704740F2BA
:1088F00033439A42A2F2334202DC5242FFF72DBECA
:10890000FFF71CBE30B5041E71F1000404DB4FF00C
:108910000044404264EB0101141E73F1000405DBC6
:108920001C464FF00043524263EB0403994208BFD8
:10893000904230BD064C074D06E0E06840F0010370
:1089400094E8070098471034AC42F6D3FFF728FCB0
:10895000ACA40108DCA40108202A06DBCB17203ACE
:1089600041FA02F043EAE07306E041FA02F3D04034
:10897000C2F12002914008431946704770B58C1827
:1089800010F8015B15F0070301D110F8013B2A1123
:1089900006D110F8012B03E010F8016B01F8016B10
:1089A0005B1EF9D12B0705D40023521E0DD401F80C
:1089B000013BFAE710F8013BCB1A921C03E013F8D5
:1089C000015B01F8015B521EF9D5A142D8D300200A
:1089D00070BD000010B5034802F09CFE024908601B
:1089E00010BD00002CB100203C02002055494A680F
:1089F00022F440324A604A6843681A434A60026877
:108A0000526822F4807203685A60026853680269EF
:108A100043EA022203685A600268526822F04072F8
:108A200003685A600268526883681A4303685A6090
:108A30000268926822F4006203689A600268926891
:108A4000C3681A4303689A603F4B826A9A4218D0FF
:108A50000268926822F0706203689A600268926805
:108A6000836A1A4303689A600268926822F040524F
:108A700003689A6002689268C36A1A4303689A603E
:108A80000BE00268926822F0706203689A600268E4
:108A9000926822F0405203689A600268926822F05D
:108AA000020203689A6002689368027E43EA420207
:108AB00003689A602022125CA2B10268526842F4F4
:108AC000006203685A600268526822F460420368D8
:108AD0005A6002685368426A521E43EA423203688F
:108AE0005A6005E00268526822F4006203685A6026
:108AF0000268D26A22F470020368DA620268D36AFA
:108B0000828B521E43EA02520368DA62026892685C
:108B100022F4007203689A600268936890F830202B
:108B200043EA422203689A600268926822F48062F3
:108B300003689A6002689368426943EA8222036884
:108B40009A607047002301400100000F7047000049
:108B500010B504462146024804F0EEFB10BD0000AB
:108B6000C8B1002010B5044804F0F9FB042801D076
:108B7000012010BD0020FCE7C8B1002010B5002482
:108B800000F014F8012801D0012010BD064804F0BF
:108B900007FD044634B94FF40061034804F082FA3B
:108BA00000B101242046F0E7C8B1002008B501203B
:108BB00000909DF8000008BD2DE9F04104460D46E7
:108BC0001646002733462A462146044804F022FE72
:108BD00000B101273846BDE8F0810000C8B100208F
:108BE00010B500220121024800680CF0B9FE10BD4A
:108BF000680200202DE9F04104460D461646002784
:108C000033462A462146044804F0B6FE00B1012747
:108C10003846BDE8F0810000C8B1002010B5002240
:108C20000221024800680CF09BFE10BD6802002083
:108C3000002004E00021034A1154411C88B2FF289F
:108C4000F8D97047C032002000B5034603A00A4996
:108C50000860032000F0F8F8184600BD50726F66F7
:108C600072616D6D65722E2056657273696F6E202C
:108C7000302E3538000000000C00002010B563488D
:108C80000078002860D16249497801EB810202EB4B
:108C9000C101604A02EB81015D4A127851F822005D
:108CA0005DA1FFF781FB20B95DA15E48FFF75DFB89
:108CB000AAE05749497801EB810202EBC101554A0C
:108CC00002EB8101524A127851F8220056A1FFF7B7
:108CD0006BFB38B95348FFF760FB401E5149002237
:108CE0000A5491E04A49497801EB810202EBC10143
:108CF000484A02EB8101464A127851F822004CA101
:108D0000FFF752FB78B947494B480068FFF76EFB05
:108D10004A48006810B149480068804748480078D0
:108D200000F092F870E03A48407800EB800202EBE5
:108D3000C000384A02EB8000354A127850F8221001
:108D40003848FFF712FB5FE03149497801EB8102B7
:108D500002EBC1013B4A02EB81012D4A127851F826
:108D600022002DA1FFF720FB20B92DA12D48FFF7F0
:108D7000FCFA49E02649497801EB810202EBC10186
:108D8000304A02EB8101224A127851F8220026A1D2
:108D9000FFF70AFB38B92348FFF7FFFA401E2149C5
:108DA00000220A5430E01A49497801EB810202EBB3
:108DB000C101244A02EB8101154A127851F82200C0
:108DC0001BA1FFF7F1FA78B916491B480068FFF7B5
:108DD0000DFB1A48006810B1184800688047184811
:108DE000007800F031F80FE00948407800EB80028D
:108DF00002EBC000134A02EB8000054A127850F8DB
:108E000022100848FFF7B1FA10BD0000D001002081
:108E10002500002030000020205370630000000077
:108E200020000000C03200202042537000000000EB
:108E300020456E7400000000200000202800002063
:108E40001D000020000100200B490978052903D1ED
:108E500001210A4A11700BE007490978042907D05B
:108E600005490978062903D003490978034A117096
:108E700001490870704700001C0000201D00002000
:108E800070B504460D46174909886018FFF785FA42
:108E9000C0EBC000284480281CD91348007813492F
:108EA0000978884219D0114800780F490870104895
:108EB000007830B90B48008818B901200C490870B7
:108EC0000BE008480088401C06490880002008493B
:108ED000087002E00020034908800248008820440E
:108EE00070BD0000D6010020D80100202400002021
:108EF000D901002070B505460E4614463146284675
:108F00000DF080FE0123044806C820460DF024FF22
:108F10000DF07EFE70BD00001802002000BF0E485C
:108F20004078032803D100200B49487004E00A4828
:108F30004078401C084948700748407800EB8001A1
:108F400001EBC000054901EB80000349097850F8A6
:108F500021000028E3D070472500002030000020C9
:108F600000BF0E48007818B90C200C49087004E0C6
:108F70000A480078401E094908700848407800EB0C
:108F8000800101EBC000064901EB8000034909782C
:108F900050F821000028E4D0704700002500002090
:108FA0003000002000BF0E4800780C2803D10020BC
:108FB0000B49087004E00A480078401C0849087012
:108FC0000748407800EB800101EBC000054901EB48
:108FD00080000349097850F821000028E3D0704749
:108FE000250000203000002000BF0E48407818B94E
:108FF00003200C49487004E00A484078401E0949A3
:1090000048700848407800EB800101EBC000064939
:1090100001EB80000349097850F821000028E4D0D2
:1090200070470000250000203000002030B52DEDF5
:109030000A8B83B08B48008800EB80008A4911F8C6
:109040003000002876D08748008800EB800001EBD4
:10905000C0004FF48063D0E902120020591A9041F9
:109060000ED38048008800EB80007F4901EBC000F0
:10907000D0E9024322467DA1684609F0FDF9CFE020
:109080007848008800EB8000774901EBC0004FF47E
:109090008012D0E902310020D21A88411AD37148D7
:1090A000008800EB8000704901EBC000D0E902218C
:1090B0001046FFF721FA9FED6F0B53EC102BFFF7D3
:1090C0009EF941EC180B53EC182B6CA1684609F083
:1090D000D3F9A5E06348008800EB8000624901EB0A
:1090E000C0004FF08042D0E902310020D21A8841FE
:1090F00021D35C48008800EB80005B4901EBC00095
:10910000D0E902211046FFF7F7F99FED5A0B53EC17
:10911000102BFFF774F99FED570B53EC102BFFF753
:109120006EF941EC180B53EC182B56A1684609F068
:10913000A3F975E087E04B48008800EB80004A49BE
:1091400001EBC000D0E902314FF480705A428841EF
:1091500026D34448008800EB8000434901EBC0005F
:10916000D0E902211046FFF7C7F99FED420B53ECFF
:10917000102BFFF744F99FED3F0B53EC102BFFF73B
:109180003EF99FED3C0B53EC102BFFF738F941EC07
:10919000180B53EC182B3DA1684609F06DF93FE020
:1091A0003048008800EB80002F4901EBC000D0E977
:1091B00002124FF48020494290412CD32948008864
:1091C00000EB8000284901EBC000D0E902211046E5
:1091D000FFF792F99FED270B53EC102BFFF70FF9D8
:1091E0009FED240B53EC102BFFF709F99FED210B9A
:1091F00053EC102BFFF703F99FED1E0B53EC102BD4
:10920000FFF7FDF841EC180B53EC182B21A1684631
:1092100009F032F904E021A223A1684609F02CF9F3
:109220006846FFF7BAF8C0F11200C0EBC000C4B244
:10923000002120460DF0E6FC01231C4806C86846C4
:109240000DF08AFD09E0002169200DF0DBFC01230F
:10925000164806C816A00DF07FFD03B0BDEC0A8BC2
:1092600030BD000012000020802C0020256C6C75A1
:10927000620000000000000000009040252E3266D1
:109280004B620000252E32664D620000252E3266AC
:1092900047620000252E326654620000546F6F2032
:1092A0006D616E7900000000257300001802002037
:1092B0004469720070B50025002600241CE0254A90
:1092C000254B1B8802EB032104EB840202EB4412C2
:1092D000224B03EBC200FFF767F858B904EB840098
:1092E00000EB44101D4901EBC00090F8200008B1CC
:1092F00001252646601C84B2082CE0D3FDB106EBA4
:10930000860000EB4610154901EBC00090F82001E3
:1093100050B100213F200DF075FC0123104806C814
:1093200010A00DF019FD14E0002154200DF06AFC8E
:1093300001230B4806C80EA00DF00EFD09E0002128
:1093400062200DF05FFC0123054806C80AA00DF05D
:1093500003FD70BD7A04002012000020D0330020ED
:1093600018020020436F6E6E656374656400000030
:10937000556E6C6F636B00004C6F636B00000000F8
:1093800030B587B0002108460DF03CFC8E480288BD
:10939000521C8EA105A809F06FF801238C4806C85D
:1093A00005A80DF0D9FC88480088401C0A2801DA7D
:1093B000072407E084480088401C642801DA0E2452
:1093C00000E01524002120460DF01CFC01238048FC
:1093D00006C880A00DF0C0FCE01DC4B200212046EC
:1093E0000DF010FC7C48028878A105A809F044F82B
:1093F0000123774806C805A80DF0AEFC002506E05D
:1094000001220A2128460DF017FB681CC5B2802DE9
:10941000F6D3352100200DF0F5FB00236C4806C87B
:109420006EA00DF099FC72480078A0B9352100209B
:109430000DF0E8FB0023664806C86EA00DF08CFC1A
:10944000352146200DF0DEFB0023614806C86BA0E5
:109450000DF082FCB6E066480078022860D1142145
:109460006846FEF777FF5848008800EB8000664AA0
:1094700002EBC00000F1100104226846FEF781FFF4
:109480002E208DF804005048008800EB80005E4AD2
:1094900002EBC00000F1140102220DF10500FEF7FD
:1094A00070FF2E208DF807004748008800EB8000F1
:1094B000554A02EBC00000F11601022202A8FEF795
:1094C00060FF20208DF80A003F48008800EB8000F4
:1094D0004D4A02EBC00000F1180102220DF10B0011
:1094E000FEF74FFF3A208DF80D003748008800EB5B
:1094F0008000454A02EBC00000F11A0102220DF182
:109500000E00FEF73EFF00208DF8100035210DF013
:1095100079FB00232E4806C868460DF01DFC51E07B
:109520003348007801280AD135210E200DF06AFB5E
:109530000023274806C835A00DF00EFC42E02C4859
:10954000007803280AD1352107200DF05BFB0023AA
:109550001F4806C832A00DF0FFFB33E02448007816
:10956000052819D1352100200DF04CFB1648008844
:1095700000EB8000244911F8300030B1002314487A
:1095800006C82CA00DF0E8FB1CE00023104806C81C
:109590002DA00DF0E1FB15E015480078042811D14D
:1095A0000948008800EB8000174911F8300048B9DD
:1095B00035210E200DF026FB0023054806C825A006
:1095C0000DF0CAFB07B030BD120000202569000075
:1095D000180200202F000000100000202020202072
:1095E00020202020202020202020202020200000BB
:1095F000140000203C2D44656C0000004E6577206F
:10960000666C2D3E00000000802C0020456E7465C5
:10961000722070617373776F72642D3E00000000DA
:109620005365727665722073657474696E67732D05
:109630003E000000456E743A2053656C65637420EB
:1096400026206C6F61640000456E743A204F70658F
:109650006E00000053656C65637420746865206457
:1096600069722D3E000000002DE9F84F804600266B
:109670000025A94649480068FEF78FFE1FFA80FBC7
:1096800008F10100009000980CF06CF807460024E7
:10969000A2467CE041480068005D0D2804D03F48A8
:1096A0000068005D0A2818D1A1460020A9EB050139
:1096B0007854F1B20DF0A6FA0123394806C83846AD
:1096C0000DF04AFB06F10A0086B24FF0000A09F1DC
:1096D000010084B22546A9464BE030480068005D91
:1096E00007F80A002D480068005D202800D1A14637
:1096F00008EB0500A04219D1A94517D00020A9EB1D
:1097000005017854F1B20DF07DFA0123244806C812
:1097100038460DF021FB06F10A0086B24FF0000A30
:1097200009F1010084B22546A94622E008EB0500B4
:10973000A04218D1A94516D1002007F80800F1B2BF
:109740000DF060FA0123164806C838460DF004FBF8
:1097500006F10A0086B24FF0000A08EB050084B259
:109760002546A94605E0601C84B20AF101001FFAF3
:1097700080FA5C450BD1002007F80A00F1B20DF029
:1097800041FA0123064806C838460DF0E5FA5C4563
:1097900080DB38460BF066FCBDE8F88F0C0000203B
:1097A000180200202DE9F0410027002108460DF0A5
:1097B00029FA5E48FEF7F1FD11281DD95B48FEF736
:1097C000ECFD1138594944180123594806C8204670
:1097D0000DF0C2FA5748007840B35549097801EBBB
:1097E0000111C8B200210DF00DFA0023504806C83F
:1097F00020200DF043FA19E001234D4806C84B48DC
:109800000DF0AAFA4B48007880B14848FEF7C5FD34
:10981000474909784843C4B2002120460DF0F2F9C7
:109820000023434806C820200DF028FA002478E0E1
:10983000002573E03E4800786843C6B23C48407853
:109840006043C7B23A4840783844C1B230460DF060
:10985000D9F93948007880BB04EB840000EBC400E0
:10986000364901EB800050F82500002855D03448D7
:109870004078A04212D132480078A8420ED104EBC1
:10988000840101EBC4012D4A02EB810151F825004E
:109890000023274906C90DF05FFA3EE004EB84017E
:1098A00001EBC401254A02EB810151F82500012397
:1098B0001F4906C90DF050FA2FE0FFE704EB8400C2
:1098C00000EBC4001F4901EB800050F8250020B3D5
:1098D0001B484078A04212D119480078A8420ED106
:1098E00004EB840101EBC401164A02EB810151F83B
:1098F000250000230E4906C90DF02EFA0DE004EBF9
:10990000840101EBC4010F4A02EB810151F82500EB
:109910000123074906C90DF01FFA6D1C0D2D89D3CF
:10992000641C042C84D3BDE8F0810000C032002008
:109930001802002024000020D00100203000002068
:1099400025000020000100202DE9F04100244F48AF
:10995000008830B94EA0574908600320FFF774FA19
:1099600009E04A480088282805D353A051490860D7
:109970000320FFF769FA45480088042801D304242E
:1099800001E0424804884148008855490988401A46
:10999000A04222DB00205349087000255049088866
:1099A00008E0514901EB0021504A42F825106D1C96
:1099B000411C88B24A49098821448142F1DC494866
:1099C00000780D30C1B200200DF01CF90123484889
:1099D00006C848A00DF0C0F92CE000252B490988E5
:1099E000091B88B208E0404901EB00213F4A42F8D8
:1099F00025106D1C411C88B2244909888842F2DB7D
:109A00002248007836490978401A201A35490870EA
:109A10000846007800EB80000D2202EB4000C1B246
:109A200000200DF0EFF80123314806C831A00DF0F9
:109A300093F900BF0D26002522E0F1B20F200DF0B2
:109A4000E1F82848007885420DD1284951F82500D1
:109A50000F21FFF715FA07460123254806C83846A7
:109A60000DF07AF907E0214951F82500012320493A
:109A700006C90DF071F906F10A0086B2681C85B2BC
:109A8000A542DADBFFF77CFCBDE8F0811000002086
:109A90004552524F523A204E6F2066696C657320D2
:109AA000616E64206469726563746F7269657321A5
:109AB000000000000C0000204552524F523A205442
:109AC0006F6F206D616E79206974656D7320696EAA
:109AD00020746865206469726563746F727921000F
:109AE00012000020D40100207A040020C03300209E
:109AF000180200203E00000010B52DED028B1B481F
:109B0000D0E902211046FEF7E9FC08EE100A1748DA
:109B1000D0E900211046FEF7E1FC00EE100AC8EE85
:109B2000000A9FED130A20EE800ABCEEC00A10EE78
:109B3000100AC4B222460FA1104808F09DFC002173
:109B400008460DF05FF801230D4806C80DA00DF082
:109B500003F90A2100200DF055F80123084806C832
:109B600006480DF0F9F8BDEC028B10BDC0AA00202C
:109B70000000C8422569202525000000200400209F
:109B800018020020446F776C6F61642000000000B1
:109B90002DE9F04F85B0064600270025AB46A846C4
:109BA000344602E06468781CC7B28A49606888421B
:109BB000F8D1344602E02468681CC5B285492068A3
:109BC0008842F8D17819401C00F0FF0BBBF1040F5C
:109BD00002D34FF0040800E0D8463446002108467E
:109BE0000DF010F87A1C7CA101A808F045FC0123B7
:109BF0007A4806C801A80DF0AFF8781C0A2802DAE6
:109C00004FF0070907E0781C642802DA4FF00E09CC
:109C100001E04FF01509002148460CF0F3FF012345
:109C20006E4806C86EA00DF097F809F1070000F025
:109C3000FF09002148460CF0E5FFE819421C66A127
:109C400001A808F019FC0123644806C801A80DF01A
:109C500083F8002163200CF0D5FF6248006840F6CD
:109C60008401884206D901235C4806C85EA00DF035
:109C700073F822E05B480068B0F5E66F06D2012376
:109C8000564806C85AA00DF067F816E05548006817
:109C9000A0F5E66000EE100AB8EE400ADFED550AC6
:109CA00080EE201ABCEEC10A10EE100A00F0FF0A86
:109CB000524651A101A808F0DFFB0123474806C81E
:109CC00001A80DF049F84FF0000A08E001220A212E
:109CD00050460CF0B1FE0AF1010000F0FF0ABAF1A3
:109CE000800FF3DB681C404523DB0D2100200CF0C6
:109CF00089FF0123394806C841A00DF02DF84FF027
:109D0000000A13E00AEB8A000D2202EB4000C1B208
:109D10000F200CF077FF01233049A06906C90DF030
:109D20001BF824680AF1010000F0FF0AC245E9DBD4
:109D30004DE03446A8EB0500401EC0B200900098EC
:109D400000EB80020D2000EB4200C1B200200CF0BD
:109D500059FF0123214806C829A00CF0FDFFA8EBFC
:109D60000500401E00F0FF0A13E00AEB8A000D22F6
:109D700002EB4000C1B20F200CF044FF0123174951
:109D8000A06906C90CF0E8FF24680AF1010000F0A0
:109D9000FF0AC245E9DB3446A8EB0500A0F1010A41
:109DA00011E00AEB8A000D2202EB4000C1B20F2045
:109DB0000CF028FF01230949A06906C90CF0CCFF6B
:109DC0006468AAF1010ABAF1000FEADA00BF05B02F
:109DD000BDE8F08F088D01082569000018020020F9
:109DE0002F0000003C020020313030250000000030
:109DF000302500009A99594025692525000000006A
:109E00003E00000010B519480178194800780CF0A0
:109E1000F9FE0123174806C817A00CF09DFF1A4849
:109E2000007888B912480078401C114908700F4822
:109E30000078401C0D4908700D480078192813D18E
:109E40000120114908700FE009480078401E0849B8
:109E5000087006480078401E0449087004480078DD
:109E600010B900200849087010BD0000D201002080
:109E7000D101002018020020506C656173652077C5
:109E80006169742E2E2E0000D30100200548007851
:109E900018B901200349087002E000200149087048
:109EA00070470000D001002010B51448006800F48D
:109EB000806070B111480830006840F480600F493C
:109EC0000831086000200E4908600E4800680DF057
:109ED00027FF0A48006800F4006070B107480830A6
:109EE000006840F40060054908310860002004491A
:109EF0000860044800680DF013FF10BD00640240C4
:109F0000600200205C02002010B5024801F0B8FD9C
:109F100010BD00004CB2002010B5024801F0B0FDA9
:109F200010BD0000ACB2002001460878103818239C
:109F3000B0FBF3F20848805CC865032A05D90868BD
:109F40006FF30900001D886503E008686FF30900DE
:109F50008865886D704700006898010801460020F8
:109F60008A6A8B69CBB932B1012A0DD0022A03D09B
:109F7000032A10D10EE000BFCB6A03F08073B3F167
:109F8000807F00D1012007E0CB6AB3F1C07F00D110
:109F9000012001E000E000BF34E08B69B3F5005F11
:109FA0001AD132B1012A07D0022A03D0032A11D1D3
:109FB0000AE000BF01200EE0CB6A03F08073B3F12A
:109FC000807F00D1012006E0CB6AB3F1C07F00D1D1
:109FD000012000E000BF15E032B1012A05D0022ABD
:109FE00004D0032A0CD103E000BF00BF012008E029
:109FF000CB6A03F08073B3F1807F00D1012000E0D1
:10A0000000BF00BF704730B50468246824F4802482
:10A0100005682C60046863608468402C04D104687F
:10A02000A2600468E16003E00468A1600468E26083
:10A0300030BD704710B504460420FEF705FF00F060
:10A0400083FC30B107A00A4908600320FEF7FCFE3C
:10A0500005E008A0064908600320FEF7F5FE20464B
:10A0600010BD000057492D4649204552524F52001D
:10A070000C00002057492D4649204F4B000000009E
:10A0800070B50546002419E00E4A0F4B1B8802EB01
:10A09000032104EB840202EB44120C4B03EBC200DD
:10A0A000FEF782F940B904EB840000EB4410074945
:10A0B00001EBC000203070BD601CC4B2082CE3D39B
:10A0C0000020F8E77A04002012000020D03300209E
:10A0D00070B506460420FEF7B7FE3B493B4A12889E
:10A0E00001EB0220FFF7CCFF054607F08DFB30B1F6
:10A0F00037A0414908600320FEF7A6FE63E0002D6B
:10A100005BD03149314A128801EB0220294600F028
:10A1100093F930B139A0384908600320FEF794FE66
:10A1200051E0002440E0284A284B1B8802EB032121
:10A1300004EB840202EB4412354B03EBC200FEF742
:10A1400033F998B9002004EB840101EB4411304A43
:10A1500002EBC101C1F82401012004EB840101EBF1
:10A16000441102EBC10181F820011BE004EB8400E3
:10A1700000EB4410264901EBC000D0F82401401C3C
:10A1800004EB840101EB4411214A02EBC101C1F847
:10A190002401002004EB840101EB441102EBC10116
:10A1A00081F82001601C84B2082CBCD319A012498C
:10A1B00008600320FEF748FE05E01AA00E4908607B
:10A1C0000320FEF741FE70BD7A040020120000203B
:10A1D0004572726F722C206E6F20646174612073FF
:10A1E0006176656420696E20666C617368206D65B8
:10A1F0006D6F7279000000000C000020436F6E6EDE
:10A20000656374696F6E204552524F520000000022
:10A21000D0330020436F6E6E656374696F6E204F9C
:10A220006B000000456E7465722074686520706173
:10A230007373776F7264000010B504460420FEF754
:10A2400003FE094803F0E8FE30B908A00B49086096
:10A250000320FEF7F9FD05E009A008490860032086
:10A26000FEF7F2FD204610BDE0B300204465696EA4
:10A2700069742055415254204F4B00000C000020BF
:10A280004465696E69742055415254206572726F3D
:10A29000720000002DE9F0410746002500241CE073
:10A2A000604A614B1B8802EB032104EB840202EB42
:10A2B00044125E4B03EBC200FEF776F858B904EB8C
:10A2C000840000EB4410594901EBC000203058498C
:10A2D0000860012503E0601C84B2082CE0D300BFB5
:10A2E00085BB00242BE004EB840000EB44104F49B5
:10A2F00011F8300038B104EB840000EB441011F881
:10A300003000FF2819D1474A474B1B8802EB032135
:10A3100004EB840202EB4412444B03EBC200FEF751
:10A3200065F804EB840000EB4410404901EBC000E9
:10A3300020303F490860012503E0601C84B2082CEE
:10A34000D1D300BF002D62D10024002016E000EB25
:10A35000800101EB4011354A02EBC101D1F8241113
:10A3600004EB840202EB4412304B03EBC202D2F83E
:10A370002421914200D9C4B2411C88B20828E6D3F6
:10A38000284A294B1B8802EB032104EB840202EBD1
:10A390004412264B03EBC200FEF728F800260BE020
:10A3A000002104EB840000EB4410204A02EBC000C3
:10A3B00020308155701C86B204EB840101EB4411FE
:10A3C0001A4A02EBC10101F12000FDF7E6FFB0429D
:10A3D000E6D8002004EB840101EB4411134A02EBA0
:10A3E000C10181F8200104EB840101EB441102EB6F
:10A3F000C101C1F8240104EB840000EB44101146B4
:10A4000001EBC00020300A490860012500BF084860
:10A4100001680848FDF7EAFF0720FEF715FDBDE8D3
:10A42000F08100007A04002012000020D0330020C8
:10A4300020000020C032002030B5C1B004460D46D7
:10A440004FF4807101A8FDF785FF18A101A8FDF761
:10A450008CFF18A101A8FDF788FF214601A8FDF790
:10A4600084FF15A101A8FDF780FF294601A8FDF78B
:10A470007CFF10A101A8FDF778FF04200F490870A8
:10A4800001A800F0EFFB10B1012041B030BD4FF446
:10A490007A5000F05DFB012803D1002007490870C5
:10A4A000F3E70020054908700120EEE7636F6E6353
:10A4B0003D00000022000000222C2200DE010020CE
:10A4C00070B5FEB005460E46304606F0ADFD00F014
:10A4D000ADFF044604203E4908703EA101A8FDF7E7
:10A4E00085FF04F5847101A8FDF73FFF01A800F086
:10A4F000B9FB10B101207EB070BD4FF47A7000F04E
:10A5000027FB012804D00020314908700120F2E720
:10A5100033A101A8FDF76AFF04F5027101A8FDF758
:10A5200024FF01A800F09EFB08B10120E3E74FF4EF
:10A530007A7000F00DFB012804D000202449087037
:10A540000120D8E70120224908700220274908701D
:10A5500027A101A8FDF74AFF214601A8FDF705FF45
:10A5600025A101A8FDF701FF04F5807101A8FDF701
:10A57000FCFE21A101A8FDF7F8FE294601A8FDF780
:10A58000F4FE314601A8FDF7F0FE1CA101A8FDF77D
:10A59000ECFE01A800F066FB08B10120ABE74FF428
:10A5A000FA6000F0D5FA012808D1002008490870A7
:10A5B0000E49087006F086F800209CE70020044948
:10A5C00008700A49087006F07DF8012093E7000042
:10A5D000DE0100206C6F676E3D5553455220000030
:10A5E000706173733D50415353200000DF01002020
:10A5F00066696C653D220000222C220022000000CA
:10A6000070B5CCB0054600205749088057490880EE
:10A6100000BF2DE0002100EB8002554B03F8321003
:10A62000002200EB8003524E06EBC3039A60DA600F
:10A6300000EB8002334603EBC202117400EB800290
:10A6400003EBC20282F8221000EB800203EBC2028D
:10A6500082F8231000EB800203EBC20282F8211083
:10A6600000EB800203EBC20282F82010411C88B28A
:10A670002828CFD300F0DAFE044604203D490870B4
:10A680003DA101A8FDF7B2FE04F5847101A8FDF714
:10A690006CFE01A800F0E6FA10B101204CB070BDCC
:10A6A0004FF47A7000F054FA012804D000203149A8
:10A6B00008700120F2E733A101A8FDF797FE04F529
:10A6C000027101A8FDF751FE01A800F0CBFA08B114
:10A6D0000120E3E74FF47A7000F03AFA012804D041
:10A6E0000020244908700120D8E701202149087082
:10A6F00005202749087000201C49088025A101A8D1
:10A70000FDF774FE214601A8FDF72FFE23A101A845
:10A71000FDF72BFE04F5807101A8FDF726FE1FA1B1
:10A7200001A8FDF722FE294601A8FDF71EFE1CA187
:10A7300001A8FDF71AFE01A800F094FA08B1012063
:10A74000ACE742F2107000F003FA012805D10020B6
:10A75000084908700E490870A0E7002005490870F4
:10A760000B490870012099E712000020100000201A
:10A77000802C0020DE0100206C6F676E3D55534534
:10A7800052200000706173733D504153532000000C
:10A79000DF0100206D6C73643D220000222C22003A
:10A7A0002200000010B501202E49087003202E4918
:10A7B000087000202D49088006F0FEFF2CA000F054
:10A7C00051FA08B1012010BD42F2107000F0C0F93A
:10A7D000012803D104202349087004E00020214906
:10A7E00008700120EFE724A000F03CFA08B1012036
:10A7F000E9E742F2107000F0ABF904282DD10024F3
:10A8000025E01F48FDF7C9FDA8B104EB840101EB69
:10A8100044111C4A02EBC1001949FDF7C5FD50B9AE
:10A82000012004EB840101EB4411164A02EBC10143
:10A8300081F8200109E0002004EB840101EB4411C0
:10A84000104A02EBC10181F82001601C84B2082C7F
:10A85000D7D3002003490870B5E7002001490870EC
:10A860000120B0E7DE010020DF0100201000002001
:10A870006E65747700000000737369640000000067
:10A88000606F0020D033002010B5C0B00420FEF768
:10A89000DBFA00201D4908801D480078002830D0D0
:10A8A0001B480078401E1A4908704FF480716846B2
:10A8B000FDF750FD00240BE016A16846FDF755FD9D
:10A8C000154800EB04216846FDF74FFD601CC4B23B
:10A8D0000F4800788442EFDB0EA16846FDF745FD86
:10A8E0006846FFF78DFE30B10CA0154908600320C3
:10A8F000FEF7AAFA04E0022012490870FEF7A4FA53
:10A9000002E00120FEF7A0FA40B010BD12000020C6
:10A91000DB0100202F000000103D00204552524F67
:10A92000523A20476574206C6973742066696C65BF
:10A93000732020465450206572726F72210000000F
:10A940000C0000201400002010B504200B490870F2
:10A950000BA000F087F908B1012010BD4FF47A7008
:10A9600000F0F6F8012803D1002004490870F4E74C
:10A970000020024908700120EFE70000DE010020FE
:10A98000696E69740000000030B5C1B0054605204D
:10A99000FEF75AFA0020494908804948008800EB30
:10A9A0008000484911F83000002834D04FF48071FD
:10A9B00001A8FDF7CFFC00240BE043A101A8FDF79F
:10A9C000D4FC424800EB042101A8FDF7CEFC601C3A
:10A9D000C4B23F4800788442EFDB3BA101A8FDF7F9
:10A9E000C4FC00203A4908703A48354A128800EB06
:10A9F000022101A8FFF764FD30B137A03D4908608E
:10AA00000320FEF721FA05E03BA03A490860032045
:10AA1000FEF71AFA4FE02F4A294B1B8802EB03215D
:10AA20002A4A2B4B1B7802EB0320FDF7DFFC28485A
:10AA30000078092836D226480078401C244908703E
:10AA40004FF4807101A8FDF785FC00240BE01EA1E6
:10AA500001A8FDF78AFC1D4800EB042101A8FDF7C1
:10AA600084FC601CC4B21A4800788442EFDB16A153
:10AA700001A8FDF77AFC0420FEF7E6F901A8FFF72C
:10AA8000BFFD48B100201249087021A01949086093
:10AA90000320FEF7D9F904E0022026490870FEF7EA
:10AAA000D3F908E000200A49087023A01149086082
:10AAB0000320FEF7C9F941B030BD000010000020AE
:10AAC00012000020802C00202F000000103D0020EC
:10AAD000DB0100207A0400204572726F722E205232
:10AAE0006563656976696E67207468652066696C60
:10AAF000652E00000C0000204F4B2E2046696C652F
:10AB000020646F776E6C6F616465642E00000000D6
:10AB10004552524F523A20476574206C6973742035
:10AB200066696C65732020465450206572726F729E
:10AB300021000000140000204552524F523A205488
:10AB40006F206D616E79206465707468000000008C
:10AB500070B504460DF030FC054600200D49087024
:10AB60000EE00C480078052803D10DF025FC0546C1
:10AB700003E00848007800B107E00A200AF06AFE06
:10AB80000DF01AFC29198842EBD300BF0148007868
:10AB900070BD0000DA01002010B50420FEF754F962
:10ABA0000AA0FFF72DFD30B109A01049086003206D
:10ABB000FEF74AF908E002200D49087000200D490F
:10ABC00008800220FEF740F910BD00002F000000B1
:10ABD00047455420545950455F57494E444F575F9D
:10ABE0004C495354204552524F5200000C00002053
:10ABF000140000201200002010B504460420FEF7C7
:10AC000023F9FFF7CFFD30B108A0134908600320F6
:10AC1000FEF71AF908E001201049087000201049D9
:10AC200008800220FEF710F9204610BD57492D4636
:10AC3000492047455420545950455F57494E444F89
:10AC4000575F4C495354204E4554574F524B532055
:10AC50004552524F520000000C000020140000200A
:10AC60001200002070B504462046FDF796FB86B220
:10AC7000642332462146094803F0C7FC08B101208D
:10AC800070BD07A5642301222946044803F0BDFCDA
:10AC900008B10120F4E70020F2E70000E0B3002053
:10ACA0000D00000010B504460420FEF7CDF80D4855
:10ACB00003F0FAFA68B94FF4E0520B49094803F07F
:10ACC00081FC30B909A00D4908600320FEF7BCF8EB
:10ACD00005E00BA0094908600320FEF7B5F82046FF
:10ACE00010BD0000E0B3002000E00120496E69744F
:10ACF0002055415254204F4B000000000C00002012
:10AD0000496E69742055415254206572726F720009
:10AD100072B600BFFEE730B504460D460022294654
:10AD2000204600F001F830BDF0B5034601250024AF
:10AD30001148407A01281CDA00200F4E767A0E4F17
:10AD4000B8553846467A001D40F82630001F467A2E
:10AD5000083082553E46707A461C7E72044604F1E5
:10AD6000300008703A2048702F2088700020C8708A
:10AD700000252846F0BD00000CB5002010B50022CB
:10AD800001B909E0012901D10A0205E0022901D136
:10AD90000A0201E04FF440720E4B1B6823F440732B
:10ADA0000C4C236023461B681343236023461B6817
:10ADB00023F0F803236023461B68022444EAC004FE
:10ADC0002343044C236023461B6843F480332360F1
:10ADD00010BD0000103C02401C48006800F40070E8
:10ADE000B0B11A48006820F400701849086000BF2C
:10ADF0000846006840F4006008600846006820F4D7
:10AE00000060086000BF0846006840F400700860F9
:10AE10000E48006800F48060B0B10C48006820F46F
:10AE200080600A49086000BF0846006840F480500E
:10AE300008600846006820F48050086000BF08469B
:10AE4000006840F48060086070470000003C0240E9
:10AE50000A4A126822F44072084B1A601A461268B5
:10AE600042F004021A601A4612684FF4803343EA33
:10AE700000231A43014B1A6070470000103C024047
:10AE8000074A126822F44072054B1A601A4612688B
:10AE90001A601A46126842F001021A600170704787
:10AEA000103C024010B50D49096821F440710B4C6B
:10AEB00021602146096841F44071216021460968FA
:10AEC00041F001012160026000BF00BF00BFBFF37D
:10AED0006F8F00BF00BF00BF436010BD103C024039
:10AEE000084A126822F44072064B1A601A46126829
:10AEF00042F480721A601A46126842F001021A6027
:10AF000001807047103C0240084A126822F44072E7
:10AF1000064B1A601A46126842F400721A601A460A
:10AF2000126842F001021A6001607047103C024052
:10AF30002A48006800F0100040B12948C06940F07C
:10AF400010002749C8611020244908602348006880
:10AF500000F0200040B12248C06940F008002049BC
:10AF6000C86120201D4908601C48006800F04000AE
:10AF700040B11B48C06940F004001949C861402035
:10AF8000164908601548006800F0800040B1144878
:10AF9000C06940F002001249C86180200F49086072
:10AFA0000E48006800F4807048B10D48C06940F058
:10AFB00001000B49C8614FF48070084908600748D8
:10AFC000006800F0020040B10548C06940F0200070
:10AFD0000349C86102200149086070470C3C0240E7
:10AFE000CCB4002070B50446002500201449C86187
:10AFF00001F0A0F9054609E0601C38B124B101F068
:10B0000099F9401BA04201D9032070BD0D4800688A
:10B0100000F480300028EFD10A48006800F00100F9
:10B0200010B10120074908600648006800F4F97073
:10B0300018B1FFF77DFF0120E7E70020E5E70000FA
:10B04000CCB400200C3C024010B504461B480088DC
:10B050004FF6FF7188421DD100200AE000EBC011BD
:10B06000174A12F8311011B91449088003E0411C45
:10B0700088B20A28F2D300BF104800884FF6FF714B
:10B08000884207D10FA0184908600320FDF7DCFEB5
:10B09000204610BD0948008800EBC010084901EBAC
:10B0A000C00012490860084601681148FDF79EF982
:10B0B0000720FDF7C9FE2046EBE70000DC01002079
:10B0C000104700204E6F2066726565206D656D6FBC
:10B0D000727920666F72206E657720465450207218
:10B0E00065636F72642100000C00002020000020C6
:10B0F000C032002010B50446114800884FF6FF7199
:10B10000884207D10FA0154908600320FDF79CFE77
:10B11000204610BD0A48008800EBC010104901EB22
:10B12000C00000F584700F490860084601680E48A9
:10B13000FDF75CF90720FDF787FE2046E9E70000F0
:10B14000DC010020666972737420656E746572207C
:10B150007468652061646472657373000C0000207C
:10B160001047002020000020C032002010B5044607
:10B17000114800884FF6FF71884207D10FA015498A
:10B1800008600320FDF760FE204610BD0A480088D5
:10B1900000EBC010104901EBC00000F502700F4930
:10B1A0000860084601680E48FDF720F90720FDF702
:10B1B0004BFE2046E9E70000DC010020466972737F
:10B1C0007420656E746572207468652061646472B1
:10B1D000657373000C000020104700202000002041
:10B1E000C032002010B504460A4805F0BFFC30B15B
:10B1F00009A0114908600320FDF726FE08E004209D
:10B200000E49087000200E4908800220FDF71CFE40
:10B21000204610BD100000204552524F523A2047A0
:10B220006574206C6973742066696C65732065723F
:10B23000726F7221000000000C000020140000203A
:10B240001200002010B50446114800884FF6FF7127
:10B25000884207D10FA0154908600320FDF7F4FDCF
:10B26000204610BD0A48008800EBC010104901EBD1
:10B27000C00000F580700F490860084601680E485C
:10B28000FDF7B4F80720FDF7DFFD2046E9E70000F1
:10B29000DC010020666972737420656E746572202B
:10B2A0007468652061646472657373000C0000202B
:10B2B0001047002020000020C032002010B50446B6
:10B2C0001F4800884FF6FF7188422CD01C48008828
:10B2D00000EBC0101B4911F8300020B3184800885B
:10B2E00000EBC01001EBC00090F80001D8B1144889
:10B2F000008800EBC01001EBC00090F8080390B18B
:10B300004FF6FF700E49088006F07EFA38B10EA0A5
:10B31000144908600320FDF797FD204610BD012069
:10B32000FDF792FD07E010A00E4908600320FDF72D
:10B330008BFD2046F2E7154800688068EEE70000C4
:10B34000DC010020104700204572726F722C2073C0
:10B35000657474696E6773206E6F742073617665AF
:10B36000642100000C000020506C6561736520654D
:10B370006E746572206164726573732C20706F72D5
:10B380007420616E6420706174682E0018000020C3
:10B3900010B5044600201B49098801EBC1111A4A67
:10B3A00002F831001749098801EBC11102EBC10114
:10B3B00081F808011349098801EBC11102EBC101B1
:10B3C00081F808020F49098801EBC11102EBC101A4
:10B3D00081F800010B49098801EBC11102EBC101A1
:10B3E00081F8080306F010FA38B108A00E49086089
:10B3F0000320FDF729FD204610BD0120FDF724FDA7
:10B400002046F9E7DC010020104700204572726FEA
:10B41000722C2073657474696E6773206E6F74206C
:10B4200073617665642100000C00002003480088E9
:10B4300000EBC010024901EBC0007047DC010020A6
:10B440001047002010B504460748008800EBC010E4
:10B45000064901EBC00000F5427005490860032071
:10B46000FDF7F2FC204610BDDC0100201047002053
:10B470000C00002010B5002411E00B4A0B4B1B8878
:10B4800002EB032104EBC412094B03EBC200FCF7EF
:10B490008BFF10B90748048003E0601C84B20A2CBB
:10B4A000EBD300BF10BD00007A0400201200002082
:10B4B00010470020DC01002010B504460420FDF7F1
:10B4C000C3FC06F079F900F029F830B108A0104962
:10B4D00008600320FDF7B8FC08E003200D49087060
:10B4E00000200D4908800220FDF7AEFC204610BD6B
:10B4F0004572726F7221204E6F2046545020736542
:10B50000727665727320617661696C61626C650048
:10B510000C000020140000201200002070B5002054
:10B520000F4908800025002413E004EBC4100D49E6
:10B5300011F8300058B104EBC4120B4603EBC20102
:10B54000094A02EB0520FCF751FF681C85B2601C1C
:10B5500084B20A2CE9D305480580002070BD0000A4
:10B5600012000020104700207A0400201000002064
:10B5700038B502460020009000BF92F83C00012838
:10B5800001D1022038BD012082F83C0000BF0868CC
:10B59000092816D91068C0680C780A3C04EB4405E9
:10B5A0000724AC40A0431468E0600C780A3C04EB2C
:10B5B00044048868A0401468E46820431468E0608C
:10B5C00013E0106800690C7804EB44050724AC40D4
:10B5D000A043146820610C7804EB44048868A04000
:10B5E000146824692043146820614868072817D22A
:10B5F0001068406B0C79641E04EB84051F24AC407A
:10B60000A04314686063088880B20C79641E04EB60
:10B610008404A0401468646B20431468606331E0C4
:10B6200048680D2817D21068006B0C79E41F04EBF2
:10B6300084051F24AC40A04314682063088880B2AE
:10B640000C79E41F04EB8404A0401468246B2043AD
:10B650001468206316E01068C06A0C790D3C04EB96
:10B6600084051F24AC40A0431468E062088880B2BF
:10B670000C790D3C04EB8404A0401468E46A204378
:10B680001468E0621E4B1F4C1068A0420AD1086883
:10B69000122807D1586820F400005860586840F418
:10B6A00080005860174C1068A04222D1164C0868E0
:10B6B000A04202D0086811281BD1586820F48000ED
:10B6C0005860586840F4000058600F4C0868A04269
:10B6D0000FD10E4800680E4CB0FBF4F000EB800078
:10B6E0004000009002E00098401E00900098002862
:10B6F000F9D100BF002082F83C0000BF00BF41E745
:10B7000000230140002001401200001080020020B0
:10B7100040420F0001460868C06C704770B504468F
:10B7200000250CB9012070BD1549A06A884200D0DF
:10B7300000BF206C30B9204600F024F8002060647F
:10B7400084F83C00206C00F0100088B9206C20F4D4
:10B75000885040F0020020642046FDF747F90020A1
:10B760006064206C20F0020040F00100206400E0E2
:10B77000012500BF002084F83C0000BF2846D2E726
:10B780000100000F10B586B00446142101A8FCF793
:10B79000E1FD1D492068884233D100BF00200090A0
:10B7A0001A48006840F4807018490860084600682C
:10B7B00000F48070009000BF00BF00BF0020009028
:10B7C00012481438006840F001001049143908602C
:10B7D0000846006800F00100009000BF00BF022092
:10B7E0000190032002900020039001A9084800F076
:10B7F0009DFC00220521122001F04CF8122001F0DE
:10B8000039F806B010BD0000002001404438024065
:10B810000000024008B501460020009000BF91F8EA
:10B820003C00012801D1022008BD012081F83C0024
:10B8300000BF0868806800F00100A0B9086880684F
:10B8400040F001000B68986036480068364BB0FB4A
:10B85000F3F000EB4000009002E00098401E0090E2
:10B8600000980028F9D10868806800F001000028DD
:10B870004ED0086C40F20163984340F48070086435
:10B880000868406800F4806028B1086C20F400501B
:10B8900040F480500864086C00F48050B0F5805F7C
:10B8A00004D1486C20F00600486401E000204864A0
:10B8B00000BF002081F83C0000BF1C4A6FF022004E
:10B8C0000B68186008684068194B18430B6858608B
:10B8D000506800F01F0058B90868806800F04050B8
:10B8E000F0B90868806840F080400B68986017E005
:10B8F000104B0868984213D10868806800F04050E7
:10B9000070B90868806840F080400B68986007E074
:10B91000086C40F010000864486C40F00100486476
:10B92000002081E78002002040420F0000230140F8
:10B93000200000040020014070B50446A56D00F011
:10B94000F9FC064694F83500022808D0802060658E
:10B9500000BF002084F8340000BF012070BD2068C3
:10B96000006820F01600216808602068406920F017
:10B97000800021684861206C08B9A06C28B120685B
:10B98000006820F00800216808602068006820F046
:10B990000100216808600FE000F0CCFC801B052846
:10B9A0000AD92020606500BF002084F8340000BF61
:10B9B000032084F83500D1E72068006800F001001A
:10B9C0000028E9D194F85C103F208840A86000BFAF
:10B9D000002084F8340000BF012084F835000020E6
:10B9E000BCE7014691F83500022803D08020486565
:10B9F00001207047052081F835000868006820F0B4
:10BA000001000A6810600020F3E770B504460CB925
:10BA1000012070BD94F83500022800D1F9E72068B4
:10BA2000006820F00100216808600020216808609B
:10BA300021684860216888602168C86021680861C1
:10BA40002120216848612046FEF76EFA0546002055
:10BA5000E06320646064A064E064206594F85C1096
:10BA60003F208840A8600020606584F8350000BF52
:10BA700084F8340000BF00BFCBE70146486D704733
:10BA8000F8B50446002000908C4800684FF4165129
:10BA9000B0FBF1F7A56D2E6894F85C100820884083
:10BAA000304098B12068006800F0040070B1206850
:10BAB000006820F004002168086094F85C100820F9
:10BAC0008840A860606D40F00100606594F85C10EB
:10BAD00001208840304068B12068406900F0800053
:10BAE00040B194F85C1001208840A860606D40F07F
:10BAF0000200606594F85C1004208840304068B112
:10BB00002068006800F0020040B194F85C10042046
:10BB10008840A860606D40F00400606594F85C1097
:10BB200010208840304078B32068006800F008009A
:10BB300050B394F85C1010208840A860206800681A
:10BB400000F4802080B12068006800F4002028B94B
:10BB5000206CC8B12046216C884715E0A06C98B1D4
:10BB60002046A16C88470FE02068006800F48070D0
:10BB700028B92068006820F0080021680860206C5F
:10BB800010B12046216C884794F85C102020884032
:10BB90003040002865D02068006800F010000028C0
:10BBA0005FD094F85C1020208840A86094F835009D
:10BBB000052828D12068006820F016002168086058
:10BBC0002068406920F0800021684861206C08B935
:10BBD000A06C28B12068006820F008002168086087
:10BBE00094F85C103F208840A86000BF002084F8D3
:10BBF000340000BF012084F83500206D10B12046CC
:10BC0000216D8847F8BD2068006800F4802080B16D
:10BC10002068006800F4002028B9606C10B120464C
:10BC2000616C88471DE0E06BD8B12046E16B884726
:10BC300017E02068006800F4807068B92068006828
:10BC400020F010002168086000BF002084F8340054
:10BC500000BF012084F83500E06B10B12046E16B95
:10BC60008847606D38B3606D00F00100F0B10520C9
:10BC700084F835002068006820F001002168086021
:10BC800000BF0098401C0090B84200D905E0206831
:10BC9000006800F001000028F3D100BF00BF0020C1
:10BCA00084F8340000BF012084F83500E06C10B146
:10BCB0002046E16C884700BFA4E700008002002016
:10BCC0002DE9F0410446002500F034FB074614B985
:10BCD0000120BDE8F081606A00B100BF00BF002014
:10BCE00084F8340000BF022084F835002068006822
:10BCF00020F00100216808600AE000F01BFBC01B77
:10BD0000052805D920206065032084F83500E0E788
:10BD10002068006800F001000028EED12068056866
:10BD200021480540D4E901010843E168084321693D
:10BD3000084361690843A1690843E1690843216A2E
:10BD400008430543606A042803D1D4E90B01084382
:10BD50000543206805602068456925F00705606A8D
:10BD60000543606A04280DD1A06A0543E06A48B122
:10BD70002046FEF7F3F828B140206065012084F8E2
:10BD80003500A6E7206845612046FEF7CDF8064657
:10BD900094F85C103F208840B0600020606501206E
:10BDA00084F83500002094E73F8010F02DE9F0473B
:10BDB00004460D4616461F464FF00008D4F858902A
:10BDC00000BF94F83400012802D10220BDE8F087BA
:10BDD000012084F8340000BF94F83500012825D1F3
:10BDE000022084F83500002060653B463246294633
:10BDF0002046FEF708F994F85C103F208840C9F807
:10BE000008002068006840F0160021680860206C77
:10BE100028B12068006840F00800216808602068A8
:10BE2000006840F001002168086006E000BF0020C3
:10BE300084F8340000BF4FF002084046C6E7000017
:10BE400070B5044600F076FA06462546681C10B127
:10BE500004480078054400BF00F06CFA801BA8423B
:10BE6000FAD370BD7C0200202DE9F04104460E4655
:10BE70000127002500BF2548007E012802D10220AD
:10BE8000BDE8F08101202149087600BF4CF2503016
:10BE9000FFF7A8F80746002F31D1401E3060206818
:10BEA00001280FD1207C6168FEF7D2FF4CF25030A0
:10BEB000FFF798F807461648006820F00400144978
:10BEC00008601AE0A56812E0217C2846FEF756FFBC
:10BED0004CF25030FFF786F807460D48006820F016
:10BEE000FA000B4908600FB1356005E06D1CD4E91C
:10BEF00002100844A842E7D800BFFEF76DFF00BF5C
:10BF000000200249087600BF3846B9E7CCB40020CB
:10BF1000103C02400348006840F0004001490860BE
:10BF200000207047103C02402DE9F04106460F46C4
:10BF300014461D464FF0010800BF1F48007E01282F
:10BF400002D10220BDE8F08101201B49087600BF24
:10BF50004CF25030FFF746F88046B8F1000F23D17D
:10BF600026B9E1B23846FEF78BFF12E0012E04D16C
:10BF7000A1B23846FEF7B4FF0BE0022E04D12146F1
:10BF80003846FEF7C1FF04E022462B463846FEF74E
:10BF900089FF4CF25030FFF725F8804607480068CB
:10BFA00020F001000549086000BF00200249087622
:10BFB00000BF4046C6E70000CCB40020103C024061
:10BFC00000200949096801F0004159B10749064AB2
:10BFD0000C3A1160064911600349096801F00041FB
:10BFE00001B1012070470000103C02402301674569
:10BFF000AB89EFCDF0B50C460025002200230021CF
:10C0000081E0012606FA01F504EA0502AA4279D187
:10C010003F4E8F0856F827308E07370F0F26BE4049
:10C0200033403C4EB04201D1002614E03A4EB042BB
:10C0300001D101260FE0394EB04201D102260AE0BB
:10C04000374EB04201D1032605E0364EB04201D151
:10C05000042600E007268F073F0FBE409E4222D1F4
:10C06000314E36689643304F3E603E1D36689643EB
:10C070003F1D3E603E1D366896433F1D3E603E1D9F
:10C08000366896433F1D3E608E07370F0F2606FA2F
:10C0900007F31F4E8F0856F827609E431C4F4FEA48
:10C0A000910C47F82C6006684FEA410C032707FA09
:10C0B0000CF7BE430660CF0800F1200656F8276053
:10C0C0004F074FEAD76C0F2707FA0CF7BE434FEA2A
:10C0D000D10C00F1200747F82C60C6684FEA410CEC
:10C0E000032707FA0CF7BE43C660466801278F4056
:10C0F000BE43466086684FEA410C032707FA0CF7F7
:10C10000BE438660491C1029FFF47BAFF0BD0000E0
:10C1100008380140000002400004024000080240CC
:10C12000000C024000100240003C0140F8B50246FD
:10C130000B460025002400200021CFE0012606FA4E
:10C1400001F51E6806EA0504AC4275D11E7906F0B9
:10C150000306012E04D01E7906F00306022E13D129
:10C1600090684F000326BE40B0434F00DE68BE40DB
:10C1700030439060506801268E40B0431E79C6F36C
:10C1800000168E40304350601E7906F00306032EE1
:10C1900009D0D0684F000326BE40B0434F009E68D0
:10C1A000BE403043D0601E7906F00306022E13D144
:10C1B000CF0802F1200656F827004E07F70E0F268B
:10C1C000BE40B0434F07FF0E1E69BE403043CF084C
:10C1D00002F1200646F8270010684F000326BE40F3
:10C1E000B0431E7906F003064F00BE403043106096
:10C1F0005E6806F08056B6F1805F6ED100BF002603
:10C200000096384E366846F48046364F3E603E46CD
:10C21000366806F48046009600BF00BF324E8F0895
:10C2200056F827008E07370F0F26BE40B0432F4E1B
:10C23000B24202D1002615E04FE02D4EB24201D1AC
:10C2400001260FE02B4EB24201D102260AE02A4E0F
:10C25000B24201D1032605E0284EB24201D10426A4
:10C2600000E007268F073F0FBE4030431E4E8F0869
:10C2700046F82700224E3068A0435E6806F48036F8
:10C28000B6F5803F00D120431D4E3060361D30682A
:10C29000A0435E6806F40036B6F5003F00D12043A7
:10C2A000174E361D3060361D3068A0435E6806F4B8
:10C2B0008016B6F5801F00D12043114E083630603D
:10C2C000361D3068A0435E6806F40016B6F5001F00
:10C2D00000D120430A4E0C363060491C1029FFF46F
:10C2E0002DAFF8BD4438024008380140000002403C
:10C2F0000004024000080240000C0240001002400E
:10C30000003C0140024613690B400BB1012000E0E4
:10C310000020704710B5426921EA020302EA0104D5
:10C3200043EA0443836110BD0AB1816101E00B045B
:10C330008361704701480068704700007402002064
:10C3400070B504460CB9012070BD94F83D0028B9C1
:10C35000002084F83C00204600F08CF9242084F86A
:10C360003D002068006820F0010021680860206816
:10C37000006840F40040216808602068006820F4EC
:10C3800000402168086000F0C1FB05465C49606818
:10C39000884206D85B48854201D2012007E0002090
:10C3A00005E05948854201D2012000E00020012823
:10C3B00000D1C9E75548B5FBF0F62068406820F089
:10C3C0003F003043216848604D496068884201D889
:10C3D000701C07E04FF4967070434FF47A71B0FB15
:10C3E000F1F0401C2168096A21F03F0108432168EF
:10C3F000086243496068884214D8681E6168490031
:10C40000B0FBF1F0401CC0F30B00042801D2042063
:10C410003DE0681E61684900B0FBF1F0401CC0F3CC
:10C420000B0034E0A06838B9681E616801EB410177
:10C43000B0FBF1F0401C0AE0681E616801EBC1022C
:10C4400002EB0111B0FBF1F0401C40F48040C0F35E
:10C450000B0008B901201AE0A06848B9681E61689D
:10C4600001EB4101B0FBF1F0401CC0F30B000CE00C
:10C47000681E616801EBC10202EB0111B0FBF1F033
:10C48000401CC0F30B0040F4804040F400402168A1
:10C49000C9694CF6FF72914308432168C861D4E929
:10C4A000070108432168096821F0C0010843216899
:10C4B0000860D4E9031008432168896848F2FF3214
:10C4C0009143084321688860D4E905010843216845
:10C4D000C96821F0FF0108432168C860206800682E
:10C4E00040F001002168086000202064202084F8CA
:10C4F0003D000020206384F83E0000BF24E70000D8
:10C50000A086010080841E0000093D0040420F000B
:10C510002DE9FC5F04460F4690469946DDE90CABD9
:10C520000E9EFFF707FF054694F83D0020287DD1B9
:10C53000192301224D492046009502F08DF910B1D2
:10C540000220BDE8FC9F00BF94F83C00012801D107
:10C550000220F6E7012084F83C0000BF2068006854
:10C5600000F0010028B92068006840F0010021684F
:10C5700008602068006820F40060216808602120BD
:10C5800084F83D00402084F83E0000202064C4F878
:10C5900024A0A4F82AB0608D20853548E0624B467F
:10C5A000424639462046CDE9006502F0B7F808B1A9
:10C5B0000120C6E731E02A463146204602F0F1F973
:10C5C00050B1206C042805D12068006840F4007048
:10C5D000216808600120B4E7606A0078216808617A
:10C5E000606A401C6062208D401E2085608D401E68
:10C5F000608520684069C0F3800070B1208D60B113
:10C60000606A007821680861606A401C6062208D61
:10C61000401E2085608D401E6085208D0028CAD177
:10C620002A463146204602F0E9F800E01CE050B10D
:10C63000206C042805D12068006840F4007021684F
:10C64000086001207DE72068006840F400702168E0
:10C650000860202084F83D00002084F83E0000BFE0
:10C6600084F83C0000BF6CE702206AE7020010007B
:10C670000000FFFF10B586B00446142101A8FBF7A7
:10C6800069FE1B49206888422FD100BF002000901E
:10C690001848006840F00200164908600846006823
:10C6A00000F00200009000BF00BFC02001901220E7
:10C6B000029001200390032004900420059001A91A
:10C6C0000D48FFF733FD00BF0020009009481030EF
:10C6D000006840F4001007491031086008460068FF
:10C6E00000F40010009000BF00BF06B010BD0000B5
:10C6F0000054004030380240000402400348006803
:10C700000349097808440149086070477402002011
:10C710007C02002010B50D48006840F400700B4901
:10C7200008600846006840F48060086008460068B9
:10C7300040F480700860032000F0EAF8002000F068
:10C7400007F800F04BF8002010BD0000003C02404C
:10C7500070B588B004460025002600222146192025
:10C7600000F098F8192000F085F800BF0020019033
:10C770001648006840F00100144908600846006847
:10C7800000F00100019000BF00BF02A903A800F063
:10C7900095F900F0CBF905460D48B5FBF0F0461EC3
:10C7A0000C480D49086040F2E7310B48C160466013
:10C7B00000210161816001F0D9F920B9064801F03A
:10C7C00083FA08B070BD0120FBE700004438024046
:10C7D00040420F000000014084B4002008B500BFB3
:10C7E000002000901148006840F480400F49086024
:10C7F0000846006800F48040009000BF00BF00BF02
:10C8000000200090081F006840F08050091F086059
:10C810000846006800F08050009000BF00BF002272
:10C820000F21901E00F036F808BD00004438024089
:10C8300010B501460846002817DB00F01F0301224F
:10C840009A400B4B440943F8242000BF00BF00BFAF
:10C85000BFF34F8F00BF00BF00BF00BF00BF00BFCE
:10C86000BFF36F8F00BF00BF00BF00BF10BD00004F
:10C8700080E100E001460846002809DB00F01F03C4
:10C8800001229A4043099B0003F1E023C3F80021F1
:10C8900000BF70472DE9F05F80460D461646002721
:10C8A00005F0FEFD074639462A46334601F00700EB
:10C8B000C0F1070ABAF1040F02D94FF0040A01E0EF
:10C8C000C0F1070AD14600F1040ABAF1070F02D2FB
:10C8D0004FF0000A01E0A0F1030AD4464FF0010A2C
:10C8E0000AFA09FAAAF1010A0AEA020A0AFA0CFA91
:10C8F0004FF0010B0BFA0CFBABF1010B0BEA030B36
:10C900004AEA0B042146404605F0D2FDBDE8F09FFF
:10C9100000BF00F00702064B19684FF6FF031940ED
:10C92000044B0B4343EA0221014B196000BF7047DF
:10C930000CED00E00000FA0570B504460D460CB998
:10C94000012070BD5848006800F00700A84209D2D5
:10C9500055490D700846006800F00700A84201D054
:10C960000120EEE7207800F0020002281DD1207897
:10C9700000F00400042805D14C48006840F4E05061
:10C980004A490860207800F00800082805D1474887
:10C99000006840F46040454908604448006820F061
:10C9A000F000A168084341490860207800F00100C8
:10C9B000A8B36068012807D13C4808380068C0F374
:10C9C0004040B8B90120BCE76068022802D0606826
:10C9D000032807D1354808380068C0F3406048B9DB
:10C9E0000120AEE7314808380068C0F3400008B9BC
:10C9F0000120A6E72D48006820F003006168084385
:10CA00002A490860FFF796FC064609E0FFF792FC0A
:10CA1000801B41F28831884202D9032091E707E068
:10CA20002248006800F00C006168B0EB810FEDD186
:10CA30001D48006800F00700A84209D91A490D7086
:10CA40000846006800F00700A84201D0012078E7FE
:10CA5000207800F00400042807D11448006820F46E
:10CA6000E050E168084311490860207800F00800B0
:10CA7000082808D10D48006820F46040216940EA88
:10CA8000C1000A49086000F061F808490968C1F36B
:10CA90000311074A515CC84006490860064800680F
:10CAA000FFF756FE00204CE7003C024008380240E9
:10CAB0007098010880020020780200200F22026096
:10CAC0000D4A126802F0030242600B4A126802F03B
:10CAD000F0028260084A126802F4E052C260064A1C
:10CAE000126802F46042D2080261044A126802F03D
:10CAF00007020A607047000008380240003C02400C
:10CB000001480068704700008002002000B5FFF770
:10CB1000F7FF04490968C1F38221034A515CC84008
:10CB200000BD0000083802408098010800B5FFF7FA
:10CB3000E7FF04490968C1F34231034A515CC84028
:10CB400000BD000008380240809801082DE9F04738
:10CB5000002400250026A1462548006800F00C00AE
:10CB600020B1042805D008283AD105E0DFF88490E8
:10CB700039E0DFF8849036E01D48001F006800F0BF
:10CB80003F041B48001F006800F4800078B11A4879
:10CB90001749091F0968C1F38811A0FB01700146FC
:10CBA000224600233846FBF78BFB05460EE0114872
:10CBB0000F49091F0968C1F38811A0FB01700146E4
:10CBC000224600233846FBF77BFB05460848001F3A
:10CBD0000068C0F30140401C4600B5FBF6F902E0D6
:10CBE000DFF8109000BF00BF4846BDE8F0870000A6
:10CBF000083802400024F40040787D01F8B504466E
:10CC00000CB90120F8BD207800F00100002874D094
:10CC1000F948006800F00C0004280DD0F6480068C0
:10CC200000F00C00082813D1F348001F006800F43E
:10CC30008000B0F5800F0BD1EF4808380068C0F3D2
:10CC40004040002859D06068002856D10120D9E71B
:10CC500000BF6068B0F5803F08D1E7480838006839
:10CC600040F48030E449083908601EE06068B0F59F
:10CC7000A02F0DD1E0480838006840F48020DE493C
:10CC8000083908600846006840F4803008600CE00D
:10CC9000D9480838006820F48030D749083908603E
:10CCA0000846006820F48020086000BF606890B1EA
:10CCB000FFF740FB054606E0FFF73CFB401B6428FE
:10CCC00001D903209EE7CC4808380068C0F34040F3
:10CCD0000028F1D011E0FFF72DFB054606E0FFF735
:10CCE00029FB401B642801D903208BE7C248083880
:10CCF0000068C0F340400028F1D1207800F0020025
:10CD000002285FD1BC48006800F00C0058B1BA4856
:10CD1000006800F00C0008281CD1B748001F00680C
:10CD200000F48000B0B9B44808380068C0F340008F
:10CD300020B1E068012801D0012063E7AE4808383F
:10CD4000006820F0F800216940EAC100AA490839CA
:10CD5000086037E0E06800B30120A8490860FFF7E9
:10CD6000E9FA054606E0FFF7E5FA401B022801D97B
:10CD7000032047E7A04808380068C0F340000028B7
:10CD8000F1D09D480838006820F0F800216940EA99
:10CD9000C10099490839086014E0002097490860EB
:10CDA000FFF7C8FA054606E0FFF7C4FA401B022861
:10CDB00001D9032026E7904808380068C0F34000F6
:10CDC0000028F1D1207800F0080008282CD16069F3
:10CDD000A8B101208A490860FFF7ACFA054606E0D1
:10CDE000FFF7A8FA401B022801D903200AE782486E
:10CDF0006C300068C0F340000028F1D014E000203F
:10CE00007F490860FFF796FA054606E0FFF792FAB9
:10CE1000401B022801D90320F4E677486C300068F3
:10CE2000C0F340000028F1D1207800F0040004286D
:10CE300070D1002770483830006800F0805090B9F9
:10CE400000BF002000906C483830006840F08050EF
:10CE50006949383108600846006800F08050009049
:10CE600000BF00BF01276748006800F48070B0B9B8
:10CE70006448006840F4807062490860FFF75AFA1D
:10CE8000054606E0FFF756FA401B022801D90320A9
:10CE9000B8E65C48006800F480700028F2D000BF5B
:10CEA000A068012808D154486830006840F00100AB
:10CEB0005149683108601DE0A06805280DD14E4831
:10CEC0006830006840F004004B496831086008464B
:10CED000006840F0010008600CE0474868300068D6
:10CEE00020F001004449683108600846006820F0DD
:10CEF0000400086000BFA068A8B1FFF71BFA054650
:10CF000009E0FFF717FA401B41F28831884202D945
:10CF1000032077E626E0384868300068C0F3400018
:10CF20000028EED013E0FFF705FA054608E0FFF70A
:10CF300001FA401B41F28831884201D9032061E6A1
:10CF40002D4868300068C0F340000028EFD1012F61
:10CF500007D129483830006820F080502649383100
:10CF6000086000BFA069002845D02348006800F091
:10CF70000C0008285DD0A069022845D100201F4977
:10CF80000866FFF7D7F9054606E0FFF7D3F9401B1F
:10CF9000022801D9032035E6174808380068C0F395
:10CFA00040600028F1D1D4E907010843616A40EAF2
:10CFB00081110122A06AC2EB500041EA00412C20FD
:10CFC000005D41EA00600C49091F086001200B491F
:10CFD0000866FFF7AFF9054606E0FFF7ABF9401B1F
:10CFE000022801D903200DE6034808380068C0F381
:10CFF00040600028F1D049E0083802400000474274
:10D00000800E474200700040002021490866FFF76B
:10D0100091F9054606E0FFF78DF9401B022801D97A
:10D020000320EFE51B480068C0F340600028F2D100
:10D030002CE0A069012800D1E4E51648001D06682F
:10D04000A069012820D006F48001E06981421BD14B
:10D0500006F03F01206A814216D147F6C070304089
:10D06000616AB0EB811F0FD106F440310122A06A42
:10D07000C2EB5000B1EB004F06D106F070612C20DE
:10D08000005DB1EB006F01D00120BBE50020B9E5E8
:10D09000000047420038024010B50446FBF756FD39
:10D0A00010BD0000F0B589B004460E4600270320ED
:10D0B00084F83400606C032820D0B6F5805F04D17A
:10D0C000A06B40F08050A0631CE0B6F5006F07D164
:10D0D000204604F0FBF90546A06B2843A06311E04D
:10D0E0003EB9204604F0BEF90546A06B2843A06374
:10D0F00008E0A06B40F00060A06303E0A06B40F08C
:10D100008050A063A06B38B1174821688863012064
:10D1100084F83400012713E060680390A06804904D
:10D12000E0680590069660690790A069089006A8D7
:10D1300007C88DE80700206803A90EC902F09EFE0B
:10D140004FF40071206802F015FF054635B106481E
:10D1500021688863A06B2843A0630127012084F81D
:10D160003400384609B0F0BDFF05400070470000AC
:10D1700010B50246506E800F0870506EC0F3836089
:10D180004870506EC0F301608870506E000CC8701B
:10D19000B2F86400000A087192F864004871906E59
:10D1A000000DC880906EC0F3034008726820805A5A
:10D1B000C0F3C03048726820805AC0F38030887253
:10D1C0006820805AC0F34030C8726820805AC0F38B
:10D1D0000030087300204873506C002836D1682056
:10D1E000805A8005030DD06E43EA90700861D06EBE
:10D1F000C0F3C2600875D06EC0F302604875D06E8F
:10D20000C0F342508875D06EC0F38240C875D06EAE
:10D21000C0F3C23008760869401C50650B7E506D23
:10D2200003F007039B1C01249C4060435065087A6F
:10D2300000F00F03012098409065D2E915035B0AC6
:10D240005843D0654FF40073136621E0506C0128F9
:10D2500013D16820805C8006830AD06E43EA1040B8
:10D2600008610869401C83025365536DD3654FF410
:10D2700000739365936D13660AE02E4813689863F4
:10D28000906B40F080509063012082F8340010BD14
:10D290006C20805AC0F3803001F8190F6C20805A3E
:10D2A000C0F3C61048706C20805C00F07F0088706E
:10D2B000106FC00FC870106FC0F341700871106F0D
:10D2C000C0F382604871106FC0F383508871106F93
:10D2D000C0F34050C87100200872106FC0F30040C6
:10D2E00048727020805AC0F3C03088727020805A13
:10D2F000C0F38030C8727020805AC0F34030087389
:10D300007020805AC0F3003048737020805AC0F3F8
:10D31000812088737020805AC0F30120C873702068
:10D32000805CC0F34600087401204874193900205D
:10D33000ADE70000FF0540000246506C0860906CAD
:10D340004860D06C8860106DC860506D0861906D49
:10D350004861D06D8861106EC86100207047F8B5D3
:10D360000446002000906946204604F063F8054614
:10D3700015B1A06B2843A0630098C0F34326304644
:10D38000F8BD000070B50446256B2068406BC0F303
:10D39000C03030B105F0080018B1204603F0C8FFD6
:10D3A000F8E02068406BC0F30020002862D04FF402
:10D3B0008070216888632068C06B4CF23A318843E2
:10D3C0002168C8632068C06A20F001002168C86233
:10D3D00005F0080038B305F0020010B905F0200090
:10D3E00050B1206802F00AFF06462EB1A06B304310
:10D3F000A0632046FFF7BAFE40F23A5021688863E6
:10D40000012084F834000020206305F0010010B9E9
:10D4100005F0020018B1204600F0A4FABAE0204658
:10D4200000F0A5FAB6E005F080000028B8D005F0BD
:10D43000200050B1206802F0E1FE06462EB1A06B3C
:10D440003043A0632046FFF791FE05F0010000285D
:10D45000A6D105F002000028A2D12068C06A20F001
:10D4600008002168C862012084F83400204600F0DA
:10D470007EFA8FE02068406BC0F3803030B105F059
:10D48000080018B1204604F069F883E02068406B7A
:10D4900040F23A21084008B1012000E000200028B5
:10D4A00078D02068406BC0F3400018B1A06B40F00A
:10D4B0000200A0632068406BC0F3C00018B1A06BED
:10D4C00040F00800A0632068406BC0F3401018B122
:10D4D000A06B40F02000A0632068406BC0F30010F8
:10D4E00018B1A06B40F01000A0632068406BC0F33F
:10D4F000402018B1A06B40F00800A06340F23A70E1
:10D50000216888632068C06B40F23A318843216803
:10D51000C863206802F072FEA16B0843A06305F0A7
:10D52000080040B1012084F8340000202063204628
:10D53000FFF71CFE2EE005F0800000B305F01000A0
:10D5400010B905F0200050B11348E16B0865E06B9D
:10D55000FEF747FA98B1E06B03F00DFA1AE005F018
:10D56000010010B905F0020050B10C48216C0865AB
:10D57000206CFEF736FA10B1206C03F0CFF909E009
:10D580000020A063012084F834000020206320469E
:10D59000FFF782FD70BD0000770901081D09010831
:10D5A00010B504460CB9012010BD94F8340020B920
:10D5B00000202077204600F067F8032084F834002C
:10D5C000204600F00BF808B10120EDE70020A06331
:10D5D0002063012084F834000020E5E770B58AB0AC
:10D5E000044600200490059006900790089076204D
:10D5F000099007A807C88DE80700206804A90EC98C
:10D6000002F03CFC064616B101200AB070BD0020B5
:10D610001B490860206802F04BFC01201849A03922
:10D62000C1F8A000204603F01DFE05463DB10120D3
:10D6300084F83400A06B2843A0630120E5E720466E
:10D6400003F016FC05463DB1012084F83400A06BC0
:10D650002843A0630120D8E74FF40071206802F04E
:10D6600089FC05464DB1074821688863A06B2843B3
:10D67000A063012084F83400C7E70020C5E700005C
:10D68000A0802542FF05400010B586B00446142155
:10D6900001A8FAF75FFE5849206888427ED100BF92
:10D6A000002000905548006840F40060534908602D
:10D6B0000846006800F40060009000BF00BF00BF93
:10D6C000002000904D481438006840F001004B499C
:10D6D000143908600846006800F00100009000BF9F
:10D6E00000BF00BF002000900846006840F0020024
:10D6F00008600846006800F00200009000BF00BF0C
:10D700004FF45070019002200290012003900320FA
:10D7100004900C20059001A93948FEF707FD48F256
:10D720003000019002200290012003900320049019
:10D730000C20059001A93348FEF7F8FC3248334924
:10D7400008604FF000604860002130488160C1608F
:10D750004FF480610161890041618900816120216C
:10D76000C1610903016204214162032181624FF416
:10D770000001C16289100163FEF7A2FA08B1FDF74A
:10D78000C7FA00BF21482064846300BF1E484830A8
:10D790001F4908604FF00060486000E02AE0402127
:10D7A0001B4881600021C1604FF4806101618900E4
:10D7B0004161890081612021C16109030162042165
:10D7C0004162032181624FF40001C162891001634B
:10D7D000FEF776FA08B1FDF79BFA00BF0C48E0634C
:10D7E000846300BF002205213120FFF753F8312068
:10D7F000FFF740F806B010BD002C0140443802404D
:10D800000000024000040240586402404CB2002074
:10D81000ACB200202DE9F04387B004460F46914694
:10D820001D46C8463FB9A06B40F00060A0630120D0
:10D8300007B0BDE8F08394F8340001287ED10020C1
:10D84000A06308EB0501E06D814205D9A06B40F0B3
:10D850000070A0630120EBE7032084F8340000206F
:10D860002168C8622068C06B40F22A3108432168F1
:10D87000C8633848216CC8633748216CC8640020ED
:10D88000216C08650021206C8160206C00680068B4
:10D8900020F0C000216C89680843216C0968086089
:10D8A0006A029308226802F180013A46206CFEF772
:10D8B0007DFA80B12068C06B20F495702168C86340
:10D8C000264821688863A06B40F08040A063012057
:10D8D00084F83400ACE7012021490860606C01281D
:10D8E00001D04FEA48284FF0FF30019068020290C3
:10D8F00090200390022004900020059001200690C3
:10D9000001A9206802F08CFA012D07D9822020633A
:10D910004146206802F096FB064606E0812020631F
:10D920004146206802F0AAFB064676B10B48216802
:10D930008863A06B3043A063012000E007E084F817
:10D94000340000202063012072E7002070E70220ED
:10D950006EE70000D508010861080108FF054000D6
:10D960008C85254210B50446FBF73AF910BD10B579
:10D970000446FBF753F910BD2DE9F04387B0044688
:10D98000884691461D464F46B8F1000F07D1A06B5F
:10D9900040F00060A063012007B0BDE8F08394F878
:10D9A0003400012874D10020A0637919E06D814210
:10D9B00005D9A06B40F00070A0630120ECE70320C4
:10D9C00084F8340000202168C8622068C06B40F2EF
:10D9D0001A2108432168C8633848E16BC863384896
:10D9E000E16BC8640020E16B0865606C012800D021
:10D9F0007F02012D07D9A02020633946206802F05C
:10DA00001BFC064606E0902020633946206802F0A1
:10DA10002FFC064666B12B4821688863A06B304313
:10DA2000A063012084F83400002020630120B3E7C4
:10DA30000120254908604021E06B8160E06B0068AF
:10DA4000006820F0C000E16B89680843E16B096859
:10DA5000086069028B08216801F180024146E06B91
:10DA6000FEF7A4F9A8B12068C06B40F21A218843E0
:10DA70002168C863134821688863A06B40F0804028
:10DA8000A063012084F8340000202063012083E794
:10DA900011E04FF0FF300190680202909020039057
:10DAA0000020049005900120069001A9206802F052
:10DAB000B7F9002070E702206EE700006509010851
:10DAC00061080108FF0540008C85254270477047BA
:10DAD00030B502460B4600BF92F83C00012801D148
